{
  "contractName": "AuthorityManager",
  "abi": [
    {
      "inputs": [],
      "stateMutability": "nonpayable",
      "type": "constructor"
    },
    {
      "anonymous": false,
      "inputs": [
        {
          "indexed": false,
          "internalType": "address",
          "name": "_authority",
          "type": "address"
        }
      ],
      "name": "NewAuthorityEvent",
      "type": "event"
    },
    {
      "anonymous": false,
      "inputs": [
        {
          "indexed": false,
          "internalType": "uint256",
          "name": "_proposalID",
          "type": "uint256"
        }
      ],
      "name": "ProposalEnactedEvent",
      "type": "event"
    },
    {
      "anonymous": false,
      "inputs": [
        {
          "indexed": false,
          "internalType": "address",
          "name": "_proposer",
          "type": "address"
        },
        {
          "indexed": false,
          "internalType": "address",
          "name": "_proposalSubject",
          "type": "address"
        },
        {
          "indexed": false,
          "internalType": "uint256",
          "name": "_proposalType",
          "type": "uint256"
        },
        {
          "indexed": false,
          "internalType": "uint256",
          "name": "_proposalID",
          "type": "uint256"
        }
      ],
      "name": "ProposalEvent",
      "type": "event"
    },
    {
      "anonymous": false,
      "inputs": [
        {
          "indexed": false,
          "internalType": "uint256",
          "name": "_proposalID",
          "type": "uint256"
        },
        {
          "indexed": false,
          "internalType": "address",
          "name": "_voter",
          "type": "address"
        }
      ],
      "name": "ProposalVoteEvent",
      "type": "event"
    },
    {
      "anonymous": false,
      "inputs": [
        {
          "indexed": false,
          "internalType": "address",
          "name": "_authority",
          "type": "address"
        }
      ],
      "name": "RemovedAuthorityEvent",
      "type": "event"
    },
    {
      "inputs": [
        {
          "internalType": "address",
          "name": "",
          "type": "address"
        }
      ],
      "name": "authorities",
      "outputs": [
        {
          "internalType": "bool",
          "name": "",
          "type": "bool"
        }
      ],
      "stateMutability": "view",
      "type": "function",
      "constant": true
    },
    {
      "inputs": [
        {
          "internalType": "address",
          "name": "",
          "type": "address"
        }
      ],
      "name": "lastProposalSubmitted",
      "outputs": [
        {
          "internalType": "uint256",
          "name": "",
          "type": "uint256"
        }
      ],
      "stateMutability": "view",
      "type": "function",
      "constant": true
    },
    {
      "inputs": [
        {
          "internalType": "address",
          "name": "_address",
          "type": "address"
        }
      ],
      "name": "getLastProposalSubmitted",
      "outputs": [
        {
          "internalType": "uint256",
          "name": "",
          "type": "uint256"
        }
      ],
      "stateMutability": "view",
      "type": "function",
      "constant": true
    },
    {
      "inputs": [
        {
          "internalType": "address",
          "name": "_address",
          "type": "address"
        }
      ],
      "name": "isAuthorized",
      "outputs": [
        {
          "internalType": "bool",
          "name": "",
          "type": "bool"
        }
      ],
      "stateMutability": "view",
      "type": "function",
      "constant": true
    },
    {
      "inputs": [],
      "name": "getNumAuthorities",
      "outputs": [
        {
          "internalType": "uint256",
          "name": "",
          "type": "uint256"
        }
      ],
      "stateMutability": "view",
      "type": "function",
      "constant": true
    },
    {
      "inputs": [],
      "name": "getAuthorities",
      "outputs": [
        {
          "internalType": "address[]",
          "name": "",
          "type": "address[]"
        }
      ],
      "stateMutability": "view",
      "type": "function",
      "constant": true
    },
    {
      "inputs": [
        {
          "internalType": "uint256",
          "name": "_proposalID",
          "type": "uint256"
        }
      ],
      "name": "getProposal",
      "outputs": [
        {
          "internalType": "uint256",
          "name": "",
          "type": "uint256"
        },
        {
          "internalType": "address",
          "name": "",
          "type": "address"
        },
        {
          "internalType": "address[]",
          "name": "",
          "type": "address[]"
        },
        {
          "internalType": "bool",
          "name": "",
          "type": "bool"
        }
      ],
      "stateMutability": "view",
      "type": "function",
      "constant": true
    },
    {
      "inputs": [],
      "name": "getProposalCount",
      "outputs": [
        {
          "internalType": "uint256",
          "name": "",
          "type": "uint256"
        }
      ],
      "stateMutability": "view",
      "type": "function",
      "constant": true
    },
    {
      "inputs": [
        {
          "internalType": "uint256",
          "name": "_proposalType",
          "type": "uint256"
        },
        {
          "internalType": "address",
          "name": "_targetAddress",
          "type": "address"
        }
      ],
      "name": "propose",
      "outputs": [],
      "stateMutability": "nonpayable",
      "type": "function"
    },
    {
      "inputs": [
        {
          "internalType": "uint256",
          "name": "id",
          "type": "uint256"
        }
      ],
      "name": "enactProposal",
      "outputs": [],
      "stateMutability": "nonpayable",
      "type": "function"
    },
    {
      "inputs": [
        {
          "internalType": "uint256",
          "name": "id",
          "type": "uint256"
        }
      ],
      "name": "voteOnProposal",
      "outputs": [],
      "stateMutability": "nonpayable",
      "type": "function"
    }
  ],
  "bytecode": "0x608060405234801561001057600080fd5b5060018060003373ffffffffffffffffffffffffffffffffffffffff1673ffffffffffffffffffffffffffffffffffffffff16815260200190815260200160002060006101000a81548160ff0219169083151502179055506005339080600181540180825580915050600190039060005260206000200160009091909190916101000a81548173ffffffffffffffffffffffffffffffffffffffff021916908373ffffffffffffffffffffffffffffffffffffffff1602179055506000600460003373ffffffffffffffffffffffffffffffffffffffff1673ffffffffffffffffffffffffffffffffffffffff168152602001908152602001600020819055506116ee8061011f6000396000f3fe608060405234801561001057600080fd5b50600436106100a95760003560e01c8063a5f2915311610071578063a5f29153146101fc578063add68edc14610254578063c08cc02d14610282578063c21b4865146102a0578063c7f758a8146102ff578063fe9fbb80146103c7576100a9565b806335fcd2bb146100ae5780635766b1a5146100dc57806391223d691461012a578063939190e614610186578063981215b9146101de575b600080fd5b6100da600480360360208110156100c457600080fd5b8101908080359060200190929190505050610423565b005b610128600480360360408110156100f257600080fd5b8101908080359060200190929190803573ffffffffffffffffffffffffffffffffffffffff169060200190929190505050610746565b005b61016c6004803603602081101561014057600080fd5b81019080803573ffffffffffffffffffffffffffffffffffffffff169060200190929190505050610ba8565b604051808215151515815260200191505060405180910390f35b6101c86004803603602081101561019c57600080fd5b81019080803573ffffffffffffffffffffffffffffffffffffffff169060200190929190505050610bc8565b6040518082815260200191505060405180910390f35b6101e6610c11565b6040518082815260200191505060405180910390f35b61023e6004803603602081101561021257600080fd5b81019080803573ffffffffffffffffffffffffffffffffffffffff169060200190929190505050610c1e565b6040518082815260200191505060405180910390f35b6102806004803603602081101561026a57600080fd5b8101908080359060200190929190505050610c36565b005b61028a610f7c565b6040518082815260200191505060405180910390f35b6102a8610f85565b6040518080602001828103825283818151815260200191508051906020019060200280838360005b838110156102eb5780820151818401526020810190506102d0565b505050509050019250505060405180910390f35b61032b6004803603602081101561031557600080fd5b8101908080359060200190929190505050611013565b604051808581526020018473ffffffffffffffffffffffffffffffffffffffff1673ffffffffffffffffffffffffffffffffffffffff1681526020018060200183151515158152602001828103825284818151815260200191508051906020019060200280838360005b838110156103b0578082015181840152602081019050610395565b505050509050019550505050505060405180910390f35b610409600480360360208110156103dd57600080fd5b81019080803573ffffffffffffffffffffffffffffffffffffffff1690602001909291905050506111b0565b604051808215151515815260200191505060405180910390f35b6002600082815260200190815260200160002060010160149054906101000a900460ff1661049c576040517f08c379a000000000000000000000000000000000000000000000000000000000815260040180806020018281038252602b815260200180611669602b913960400191505060405180910390fd5b600080600090505b600260008481526020019081526020016000206002018054905081101561057857600160006002600086815260200190815260200160002060020183815481106104ea57fe5b9060005260206000200160009054906101000a900473ffffffffffffffffffffffffffffffffffffffff1673ffffffffffffffffffffffffffffffffffffffff1673ffffffffffffffffffffffffffffffffffffffff16815260200190815260200160002060009054906101000a900460ff161561056b5781806001019250505b80806001019150506104a4565b5060026005805490508161058857fe5b0481116105e0576040517f08c379a00000000000000000000000000000000000000000000000000000000081526004018080602001828103825260318152602001806116386031913960400191505060405180910390fd5b6001600260008481526020019081526020016000206000015414156106435761063e6002600084815260200190815260200160002060010160009054906101000a900473ffffffffffffffffffffffffffffffffffffffff16611206565b6106a2565b60028060008481526020019081526020016000206000015414156106a1576106a06002600084815260200190815260200160002060010160009054906101000a900473ffffffffffffffffffffffffffffffffffffffff16611372565b5b5b7f7cf290be5d11312e363f31aab6acbc7b3a07284cc8de9c082f0a185b4824a800826040518082815260200191505060405180910390a1600260008381526020019081526020016000206000808201600090556001820160006101000a81549073ffffffffffffffffffffffffffffffffffffffff02191690556001820160146101000a81549060ff021916905560028201600061074091906115f1565b50505050565b600160003373ffffffffffffffffffffffffffffffffffffffff1673ffffffffffffffffffffffffffffffffffffffff16815260200190815260200160002060009054906101000a900460ff16610805576040517f08c379a000000000000000000000000000000000000000000000000000000000815260040180806020018281038252600c8152602001807f556e617574686f72697a6564000000000000000000000000000000000000000081525060200191505060405180910390fd5b60018214156108d95760001515600160008373ffffffffffffffffffffffffffffffffffffffff1673ffffffffffffffffffffffffffffffffffffffff16815260200190815260200160002060009054906101000a900460ff161515146108d4576040517f08c379a000000000000000000000000000000000000000000000000000000000815260040180806020018281038252601f8152602001807f54617267657420697320616c6c726561647920616e20617574686f726974790081525060200191505060405180910390fd5b610a1c565b60028214156109ad5760011515600160008373ffffffffffffffffffffffffffffffffffffffff1673ffffffffffffffffffffffffffffffffffffffff16815260200190815260200160002060009054906101000a900460ff161515146109a8576040517f08c379a000000000000000000000000000000000000000000000000000000000815260040180806020018281038252601a8152602001807f546172676574206973206e6f7420616e20617574686f7269747900000000000081525060200191505060405180910390fd5b610a1b565b6040517f08c379a00000000000000000000000000000000000000000000000000000000081526004018080602001828103825260198152602001807f556e737570706f727465642070726f706f73616c20747970650000000000000081525060200191505060405180910390fd5b5b600060026000806000815460010191905081905581526020019081526020016000209050828160000181905550818160010160006101000a81548173ffffffffffffffffffffffffffffffffffffffff021916908373ffffffffffffffffffffffffffffffffffffffff16021790555060018160010160146101000a81548160ff021916908315150217905550610ab4600054610c36565b600054600360003373ffffffffffffffffffffffffffffffffffffffff1673ffffffffffffffffffffffffffffffffffffffff168152602001908152602001600020819055507f8fc9c063bef4fc306ef2c762cc4c117c8b1def6a703702be8e09b2e03c05ddfc338385600054604051808573ffffffffffffffffffffffffffffffffffffffff1673ffffffffffffffffffffffffffffffffffffffff1681526020018473ffffffffffffffffffffffffffffffffffffffff1673ffffffffffffffffffffffffffffffffffffffff16815260200183815260200182815260200194505050505060405180910390a1505050565b60016020528060005260406000206000915054906101000a900460ff1681565b6000600360008373ffffffffffffffffffffffffffffffffffffffff1673ffffffffffffffffffffffffffffffffffffffff168152602001908152602001600020549050919050565b6000600580549050905090565b60036020528060005260406000206000915090505481565b600160003373ffffffffffffffffffffffffffffffffffffffff1673ffffffffffffffffffffffffffffffffffffffff16815260200190815260200160002060009054906101000a900460ff16610cf5576040517f08c379a000000000000000000000000000000000000000000000000000000000815260040180806020018281038252600c8152602001807f556e617574686f72697a6564000000000000000000000000000000000000000081525060200191505060405180910390fd5b6002600082815260200190815260200160002060010160149054906101000a900460ff16610d6e576040517f08c379a000000000000000000000000000000000000000000000000000000000815260040180806020018281038252602b815260200180611669602b913960400191505060405180910390fd5b600015156002600083815260200190815260200160002060030160003373ffffffffffffffffffffffffffffffffffffffff1673ffffffffffffffffffffffffffffffffffffffff16815260200190815260200160002060009054906101000a900460ff16151514610e2b576040517f08c379a00000000000000000000000000000000000000000000000000000000081526004018080602001828103825260258152602001806116946025913960400191505060405180910390fd5b60016002600083815260200190815260200160002060030160003373ffffffffffffffffffffffffffffffffffffffff1673ffffffffffffffffffffffffffffffffffffffff16815260200190815260200160002060006101000a81548160ff02191690831515021790555060026000828152602001908152602001600020600201339080600181540180825580915050600190039060005260206000200160009091909190916101000a81548173ffffffffffffffffffffffffffffffffffffffff021916908373ffffffffffffffffffffffffffffffffffffffff1602179055507f42a079e98a979518c06b343438820b911058ed6015865423b6bfdcce275932008133604051808381526020018273ffffffffffffffffffffffffffffffffffffffff1673ffffffffffffffffffffffffffffffffffffffff1681526020019250505060405180910390a150565b60008054905090565b6060600580548060200260200160405190810160405280929190818152602001828054801561100957602002820191906000526020600020905b8160009054906101000a900473ffffffffffffffffffffffffffffffffffffffff1673ffffffffffffffffffffffffffffffffffffffff1681526020019060010190808311610fbf575b5050505050905090565b600080606060008054851115611091576040517f08c379a00000000000000000000000000000000000000000000000000000000081526004018080602001828103825260188152602001807f4e6f20737563682070726f706f73616c2063726561746564000000000000000081525060200191505060405180910390fd5b60026000868152602001908152602001600020600001546002600087815260200190815260200160002060010160009054906101000a900473ffffffffffffffffffffffffffffffffffffffff16600260008881526020019081526020016000206002016002600089815260200190815260200160002060010160149054906101000a900460ff168180548060200260200160405190810160405280929190818152602001828054801561119a57602002820191906000526020600020905b8160009054906101000a900473ffffffffffffffffffffffffffffffffffffffff1673ffffffffffffffffffffffffffffffffffffffff1681526020019060010190808311611150575b5050505050915093509350935093509193509193565b6000600160008373ffffffffffffffffffffffffffffffffffffffff1673ffffffffffffffffffffffffffffffffffffffff16815260200190815260200160002060009054906101000a900460ff169050919050565b60018060008373ffffffffffffffffffffffffffffffffffffffff1673ffffffffffffffffffffffffffffffffffffffff16815260200190815260200160002060006101000a81548160ff0219169083151502179055506005819080600181540180825580915050600190039060005260206000200160009091909190916101000a81548173ffffffffffffffffffffffffffffffffffffffff021916908373ffffffffffffffffffffffffffffffffffffffff160217905550600160058054905003600460008373ffffffffffffffffffffffffffffffffffffffff1673ffffffffffffffffffffffffffffffffffffffff168152602001908152602001600020819055507f01d8f56b3dcf5e1803482bd4b0e847653c3892ba566f98a474544c94c20d4d5581604051808273ffffffffffffffffffffffffffffffffffffffff1673ffffffffffffffffffffffffffffffffffffffff16815260200191505060405180910390a150565b6000600460008373ffffffffffffffffffffffffffffffffffffffff1673ffffffffffffffffffffffffffffffffffffffff16815260200190815260200160002054905060016005805490501180156113d357506001600580549050038114155b156114b85760006005600160058054905003815481106113ef57fe5b9060005260206000200160009054906101000a900473ffffffffffffffffffffffffffffffffffffffff169050806005838154811061142a57fe5b9060005260206000200160006101000a81548173ffffffffffffffffffffffffffffffffffffffff021916908373ffffffffffffffffffffffffffffffffffffffff16021790555081600460008373ffffffffffffffffffffffffffffffffffffffff1673ffffffffffffffffffffffffffffffffffffffff16815260200190815260200160002081905550505b60058054806114c357fe5b6001900381819060005260206000200160006101000a81549073ffffffffffffffffffffffffffffffffffffffff02191690559055600460008373ffffffffffffffffffffffffffffffffffffffff1673ffffffffffffffffffffffffffffffffffffffff16815260200190815260200160002060009055600160008373ffffffffffffffffffffffffffffffffffffffff1673ffffffffffffffffffffffffffffffffffffffff16815260200190815260200160002060006101000a81549060ff02191690557fb5b6a1ef394a02fd00abb33ec613b956b5a4583a5e8d3b6d8c64400696c51e4682604051808273ffffffffffffffffffffffffffffffffffffffff1673ffffffffffffffffffffffffffffffffffffffff16815260200191505060405180910390a15050565b508054600082559060005260206000209081019061160f9190611612565b50565b61163491905b80821115611630576000816000905550600101611618565b5090565b9056fe50726f706f73616c20646f6573206e6f74206861766520656e6f75676820766f74657320746f20626520656e616374656450726f706f73616c20646f6573206e6f74206578697374206f7220686173206265656e20656e6163746564566f74652068617320616c6c7265616479206265656e20636173742062792073656e646572a2646970667358221220f51bd415be2197d8537190700944957073d5d956f55d247ddb3f77b745af51e864736f6c63430006010033",
  "source": "pragma solidity ^0.6.1;\nimport \"./iface/IAuthorization.sol\";\n\ncontract AuthorityManager is IAuthorization {\n    struct Proposal {\n        uint256 proposalType;\n        address target;\n        bool isActive;\n        address[] voters;\n        mapping(address => bool) hasVoted;\n    }\n\n    uint256 proposalCount;\n    mapping(address => bool) public authorities;\n    mapping(uint256 => Proposal) proposals;\n    mapping(address => uint256) public lastProposalSubmitted;\n\n    mapping(address => uint256) authorityToRegistryIndex;\n\n    address[] authorityRegistry;\n\n    modifier authorized() {\n        require(authorities[msg.sender], \"Unauthorized\");\n        _;\n    }\n\n    event ProposalEvent(\n        address _proposer,\n        address _proposalSubject,\n        uint256 _proposalType,\n        uint256 _proposalID\n    );\n\n    event ProposalVoteEvent(uint256 _proposalID, address _voter);\n\n    event ProposalEnactedEvent(uint256 _proposalID);\n\n    event NewAuthorityEvent(address _authority);\n\n    event RemovedAuthorityEvent(address _authority);\n\n    constructor() public {\n        authorities[msg.sender] = true;\n        authorityRegistry.push(msg.sender);\n        authorityToRegistryIndex[msg.sender] = 0;\n    }\n\n    function addAuthority(address _address) private {\n        authorities[_address] = true;\n        authorityRegistry.push(_address);\n        authorityToRegistryIndex[_address] = authorityRegistry.length - 1;\n        emit NewAuthorityEvent(_address);\n    }\n\n    function removeAuthority(address _address) private {\n        uint256 authorityIndex = authorityToRegistryIndex[_address];\n\n        // Swap the trustee to remove with the last one.\n        if (\n            (authorityRegistry.length > 1) &&\n            (authorityIndex != authorityRegistry.length - 1)\n        ) {\n            address lastAuthority = authorityRegistry[authorityRegistry.length -\n                1];\n            authorityRegistry[authorityIndex] = lastAuthority;\n            authorityToRegistryIndex[lastAuthority] = authorityIndex;\n        }\n\n        authorityRegistry.pop();\n        delete authorityToRegistryIndex[_address];\n        delete authorities[_address];\n        emit RemovedAuthorityEvent(_address);\n    }\n\n    function getLastProposalSubmitted(address _address)\n        public\n        view\n        returns (uint256)\n    {\n        return lastProposalSubmitted[_address];\n    }\n\n    function isAuthorized(address _address)\n        external\n        view\n        override\n        returns (bool)\n    {\n        return authorities[_address];\n    }\n\n    function getNumAuthorities() external view returns (uint256) {\n        return authorityRegistry.length;\n    }\n\n    function getAuthorities() external view returns (address[] memory) {\n        return authorityRegistry;\n    }\n\n    function getProposal(uint256 _proposalID)\n        external\n        view\n        returns (uint256, address, address[] memory, bool)\n    {\n        require(_proposalID <= proposalCount, \"No such proposal created\");\n        return (\n            proposals[_proposalID].proposalType,\n            proposals[_proposalID].target,\n            proposals[_proposalID].voters,\n            proposals[_proposalID].isActive\n        );\n    }\n\n    function getProposalCount() external view returns (uint256) {\n        return proposalCount;\n    }\n\n    function propose(uint256 _proposalType, address _targetAddress)\n        public\n        authorized\n    {\n        if (_proposalType == 1) {\n            require(\n                authorities[_targetAddress] == false,\n                \"Target is allready an authority\"\n            );\n        } else if (_proposalType == 2) {\n            require(\n                authorities[_targetAddress] == true,\n                \"Target is not an authority\"\n            );\n        } else revert(\"Unsupported proposal type\");\n\n        Proposal storage proposal = proposals[++proposalCount];\n        proposal.proposalType = _proposalType;\n        proposal.target = _targetAddress;\n        proposal.isActive = true;\n\n        voteOnProposal(proposalCount);\n        lastProposalSubmitted[msg.sender] = proposalCount;\n        emit ProposalEvent(\n            msg.sender,\n            _targetAddress,\n            _proposalType,\n            proposalCount\n        );\n    }\n\n    function enactProposal(uint256 id) public {\n        require(\n            proposals[id].isActive,\n            \"Proposal does not exist or has been enacted\"\n        );\n\n        uint256 votes;\n\n        for (uint256 i = 0; i < proposals[id].voters.length; i++) {\n            if (authorities[proposals[id].voters[i]]) {\n                votes++;\n            }\n        }\n\n        require(\n            votes > (authorityRegistry.length / 2),\n            \"Proposal does not have enough votes to be enacted\"\n        );\n\n        if (proposals[id].proposalType == 1) {\n            addAuthority(proposals[id].target);\n        } else if (proposals[id].proposalType == 2) {\n            removeAuthority(proposals[id].target);\n        }\n\n        emit ProposalEnactedEvent(id);\n        delete proposals[id]; //Delete refunds gas, making an enact call cheap if it's legitimate, and expensive if it's not.\n    }\n\n    function voteOnProposal(uint256 id) public authorized {\n        require(\n            proposals[id].isActive,\n            \"Proposal does not exist or has been enacted\"\n        );\n        require(\n            proposals[id].hasVoted[msg.sender] == false,\n            \"Vote has allready been cast by sender\"\n        );\n        proposals[id].hasVoted[msg.sender] = true;\n        proposals[id].voters.push(msg.sender);\n        emit ProposalVoteEvent(id, msg.sender);\n    }\n}\n",
  "sourcePath": "contracts/AuthorityManager.sol",
  "compiler": {
    "name": "solc",
    "version": "0.6.1+commit.e6f7d5a4.Emscripten.clang"
  },
  "schemaVersion": "3.0.23",
  "updatedAt": "2021-03-08T18:05:27.461Z",
  "networkType": "ethereum",
  "devdoc": {
    "methods": {}
  },
  "userdoc": {
    "methods": {}
  }
}