{
  "contractName": "LicenseProvider",
  "abi": [
    {
      "inputs": [
        {
          "internalType": "address",
          "name": "_address",
          "type": "address"
        }
      ],
      "stateMutability": "nonpayable",
      "type": "constructor"
    },
    {
      "anonymous": false,
      "inputs": [
        {
          "indexed": false,
          "internalType": "address",
          "name": "_license",
          "type": "address"
        },
        {
          "indexed": false,
          "internalType": "address",
          "name": "_issuer",
          "type": "address"
        }
      ],
      "name": "IssuerMoveApproved",
      "type": "event"
    },
    {
      "anonymous": false,
      "inputs": [
        {
          "indexed": false,
          "internalType": "address",
          "name": "_license",
          "type": "address"
        },
        {
          "indexed": false,
          "internalType": "address",
          "name": "_issuer",
          "type": "address"
        }
      ],
      "name": "IssuerMoveProposalAdded",
      "type": "event"
    },
    {
      "anonymous": false,
      "inputs": [
        {
          "indexed": false,
          "internalType": "address",
          "name": "_license",
          "type": "address"
        },
        {
          "indexed": false,
          "internalType": "address",
          "name": "_issuer",
          "type": "address"
        }
      ],
      "name": "NewLicense",
      "type": "event"
    },
    {
      "anonymous": false,
      "inputs": [
        {
          "indexed": false,
          "internalType": "address",
          "name": "_issuer",
          "type": "address"
        }
      ],
      "name": "NewLicenseIssuer",
      "type": "event"
    },
    {
      "anonymous": false,
      "inputs": [
        {
          "indexed": false,
          "internalType": "address",
          "name": "_license",
          "type": "address"
        },
        {
          "indexed": false,
          "internalType": "address",
          "name": "_provider",
          "type": "address"
        }
      ],
      "name": "ProviderMoveApproved",
      "type": "event"
    },
    {
      "anonymous": false,
      "inputs": [
        {
          "indexed": false,
          "internalType": "address",
          "name": "_license",
          "type": "address"
        },
        {
          "indexed": false,
          "internalType": "address",
          "name": "_provider",
          "type": "address"
        }
      ],
      "name": "ProviderMoveProposalAdded",
      "type": "event"
    },
    {
      "anonymous": false,
      "inputs": [
        {
          "indexed": false,
          "internalType": "address",
          "name": "_provider",
          "type": "address"
        }
      ],
      "name": "ProviderRegistered",
      "type": "event"
    },
    {
      "anonymous": false,
      "inputs": [
        {
          "indexed": false,
          "internalType": "address",
          "name": "_provider",
          "type": "address"
        }
      ],
      "name": "ProviderRemoved",
      "type": "event"
    },
    {
      "anonymous": false,
      "inputs": [
        {
          "indexed": false,
          "internalType": "address",
          "name": "_license",
          "type": "address"
        }
      ],
      "name": "RemovedLicense",
      "type": "event"
    },
    {
      "anonymous": false,
      "inputs": [
        {
          "indexed": false,
          "internalType": "address",
          "name": "_issuer",
          "type": "address"
        }
      ],
      "name": "RemovedLicenseIssuer",
      "type": "event"
    },
    {
      "anonymous": false,
      "inputs": [
        {
          "indexed": false,
          "internalType": "address",
          "name": "_issuer",
          "type": "address"
        },
        {
          "indexed": false,
          "internalType": "address",
          "name": "_authority",
          "type": "address"
        }
      ],
      "name": "TrustInIssuerAdded",
      "type": "event"
    },
    {
      "anonymous": false,
      "inputs": [
        {
          "indexed": false,
          "internalType": "address",
          "name": "_issuer",
          "type": "address"
        },
        {
          "indexed": false,
          "internalType": "address",
          "name": "_authority",
          "type": "address"
        }
      ],
      "name": "TrustInIssuerRemoved",
      "type": "event"
    },
    {
      "anonymous": false,
      "inputs": [
        {
          "indexed": false,
          "internalType": "address",
          "name": "_provider",
          "type": "address"
        },
        {
          "indexed": false,
          "internalType": "address",
          "name": "_authority",
          "type": "address"
        }
      ],
      "name": "TrustInProviderAdded",
      "type": "event"
    },
    {
      "anonymous": false,
      "inputs": [
        {
          "indexed": false,
          "internalType": "address",
          "name": "_provider",
          "type": "address"
        },
        {
          "indexed": false,
          "internalType": "address",
          "name": "_authority",
          "type": "address"
        }
      ],
      "name": "TrustInProviderRemoved",
      "type": "event"
    },
    {
      "inputs": [
        {
          "internalType": "address",
          "name": "_licenseAddress",
          "type": "address"
        }
      ],
      "name": "isLicense",
      "outputs": [
        {
          "internalType": "bool",
          "name": "",
          "type": "bool"
        }
      ],
      "stateMutability": "view",
      "type": "function",
      "constant": true
    },
    {
      "inputs": [
        {
          "internalType": "address",
          "name": "_licenseAddress",
          "type": "address"
        }
      ],
      "name": "getLicense",
      "outputs": [
        {
          "internalType": "address",
          "name": "",
          "type": "address"
        },
        {
          "internalType": "address",
          "name": "",
          "type": "address"
        }
      ],
      "stateMutability": "view",
      "type": "function",
      "constant": true
    },
    {
      "inputs": [
        {
          "internalType": "address",
          "name": "_licenseAddress",
          "type": "address"
        }
      ],
      "name": "isLicenseTrusted",
      "outputs": [
        {
          "internalType": "bool",
          "name": "",
          "type": "bool"
        }
      ],
      "stateMutability": "view",
      "type": "function",
      "constant": true
    },
    {
      "inputs": [],
      "name": "registerSenderAsIssuer",
      "outputs": [],
      "stateMutability": "nonpayable",
      "type": "function"
    },
    {
      "inputs": [],
      "name": "removeSenderAsIssuer",
      "outputs": [],
      "stateMutability": "nonpayable",
      "type": "function"
    },
    {
      "inputs": [
        {
          "internalType": "address",
          "name": "_address",
          "type": "address"
        }
      ],
      "name": "isLicenseIssuer",
      "outputs": [
        {
          "internalType": "bool",
          "name": "",
          "type": "bool"
        }
      ],
      "stateMutability": "view",
      "type": "function",
      "constant": true
    },
    {
      "inputs": [
        {
          "internalType": "address",
          "name": "_address",
          "type": "address"
        }
      ],
      "name": "isTrustedLicenseIssuer",
      "outputs": [
        {
          "internalType": "bool",
          "name": "",
          "type": "bool"
        }
      ],
      "stateMutability": "view",
      "type": "function",
      "constant": true
    },
    {
      "inputs": [
        {
          "internalType": "address",
          "name": "_address",
          "type": "address"
        }
      ],
      "name": "addTrustInLicenseIssuer",
      "outputs": [],
      "stateMutability": "nonpayable",
      "type": "function"
    },
    {
      "inputs": [
        {
          "internalType": "address",
          "name": "_address",
          "type": "address"
        }
      ],
      "name": "removeTrustInLicenseIssuer",
      "outputs": [],
      "stateMutability": "nonpayable",
      "type": "function"
    },
    {
      "inputs": [
        {
          "internalType": "address",
          "name": "_address",
          "type": "address"
        }
      ],
      "name": "issueLicenseToAddress",
      "outputs": [],
      "stateMutability": "nonpayable",
      "type": "function"
    },
    {
      "inputs": [
        {
          "internalType": "address",
          "name": "_address",
          "type": "address"
        }
      ],
      "name": "proposeMoveToLicenseIssuer",
      "outputs": [],
      "stateMutability": "nonpayable",
      "type": "function"
    },
    {
      "inputs": [
        {
          "internalType": "address",
          "name": "_address",
          "type": "address"
        }
      ],
      "name": "approveMoveToLicenseIssuer",
      "outputs": [],
      "stateMutability": "nonpayable",
      "type": "function"
    },
    {
      "inputs": [],
      "name": "registerProvider",
      "outputs": [],
      "stateMutability": "nonpayable",
      "type": "function"
    },
    {
      "inputs": [],
      "name": "removeProvider",
      "outputs": [],
      "stateMutability": "nonpayable",
      "type": "function"
    },
    {
      "inputs": [
        {
          "internalType": "address",
          "name": "_address",
          "type": "address"
        }
      ],
      "name": "isLicenseProvider",
      "outputs": [
        {
          "internalType": "bool",
          "name": "",
          "type": "bool"
        }
      ],
      "stateMutability": "view",
      "type": "function",
      "constant": true
    },
    {
      "inputs": [
        {
          "internalType": "address",
          "name": "_address",
          "type": "address"
        }
      ],
      "name": "isTrustedProvider",
      "outputs": [
        {
          "internalType": "bool",
          "name": "",
          "type": "bool"
        }
      ],
      "stateMutability": "view",
      "type": "function",
      "constant": true
    },
    {
      "inputs": [
        {
          "internalType": "address",
          "name": "_address",
          "type": "address"
        }
      ],
      "name": "addTrustInProvider",
      "outputs": [],
      "stateMutability": "nonpayable",
      "type": "function"
    },
    {
      "inputs": [
        {
          "internalType": "address",
          "name": "_address",
          "type": "address"
        }
      ],
      "name": "removeTrustInProvider",
      "outputs": [],
      "stateMutability": "nonpayable",
      "type": "function"
    },
    {
      "inputs": [
        {
          "internalType": "address",
          "name": "_toAddress",
          "type": "address"
        }
      ],
      "name": "proposeLicenseProviderMovement",
      "outputs": [],
      "stateMutability": "nonpayable",
      "type": "function"
    },
    {
      "inputs": [
        {
          "internalType": "address",
          "name": "_licenseAddress",
          "type": "address"
        }
      ],
      "name": "approveLicenseProviderMovement",
      "outputs": [],
      "stateMutability": "nonpayable",
      "type": "function"
    },
    {
      "inputs": [
        {
          "internalType": "address",
          "name": "_license",
          "type": "address"
        },
        {
          "internalType": "address",
          "name": "_provider",
          "type": "address"
        }
      ],
      "name": "isLicenseRegisteredWithProvider",
      "outputs": [
        {
          "internalType": "bool",
          "name": "",
          "type": "bool"
        }
      ],
      "stateMutability": "view",
      "type": "function",
      "constant": true
    },
    {
      "inputs": [
        {
          "internalType": "address",
          "name": "_licenseAddress",
          "type": "address"
        }
      ],
      "name": "getIsserOfLicense",
      "outputs": [
        {
          "internalType": "address",
          "name": "",
          "type": "address"
        }
      ],
      "stateMutability": "view",
      "type": "function",
      "constant": true
    },
    {
      "inputs": [
        {
          "internalType": "address",
          "name": "_licenseAddress",
          "type": "address"
        }
      ],
      "name": "getProviderForLicense",
      "outputs": [
        {
          "internalType": "address",
          "name": "",
          "type": "address"
        }
      ],
      "stateMutability": "view",
      "type": "function",
      "constant": true
    },
    {
      "inputs": [],
      "name": "getLicenses",
      "outputs": [
        {
          "internalType": "address[]",
          "name": "",
          "type": "address[]"
        },
        {
          "internalType": "address[]",
          "name": "",
          "type": "address[]"
        },
        {
          "internalType": "address[]",
          "name": "",
          "type": "address[]"
        }
      ],
      "stateMutability": "view",
      "type": "function",
      "constant": true
    },
    {
      "inputs": [],
      "name": "getIssuers",
      "outputs": [
        {
          "internalType": "address[]",
          "name": "",
          "type": "address[]"
        }
      ],
      "stateMutability": "view",
      "type": "function",
      "constant": true
    },
    {
      "inputs": [],
      "name": "getLicenseProviders",
      "outputs": [
        {
          "internalType": "address[]",
          "name": "",
          "type": "address[]"
        }
      ],
      "stateMutability": "view",
      "type": "function",
      "constant": true
    },
    {
      "inputs": [
        {
          "internalType": "address",
          "name": "_license",
          "type": "address"
        }
      ],
      "name": "getAuthorityTrustingLicenseIssuer",
      "outputs": [
        {
          "internalType": "address",
          "name": "",
          "type": "address"
        }
      ],
      "stateMutability": "view",
      "type": "function",
      "constant": true
    },
    {
      "inputs": [
        {
          "internalType": "address",
          "name": "_provider",
          "type": "address"
        }
      ],
      "name": "getAuthorityTrustingLicenseProvider",
      "outputs": [
        {
          "internalType": "address",
          "name": "",
          "type": "address"
        }
      ],
      "stateMutability": "view",
      "type": "function",
      "constant": true
    }
  ],
  "bytecode": "0x608060405234801561001057600080fd5b5060405162004809380380620048098339818101604052602081101561003557600080fd5b8101908080519060200190929190505050806000806101000a81548173ffffffffffffffffffffffffffffffffffffffff021916908373ffffffffffffffffffffffffffffffffffffffff1602179055505061477280620000976000396000f3fe608060405234801561001057600080fd5b50600436106101c45760003560e01c806389248575116100f9578063c08974e211610097578063f5f17dd911610071578063f5f17dd914610a2c578063f769c6d014610a8b578063f908ac0514610a95578063ff2bfa1614610af1576101c4565b8063c08974e21461096a578063cb874e79146109c6578063db21707214610a22576101c4565b8063a5b06b3b116100d3578063a5b06b3b14610791578063a6e3aae414610880578063aa0be77e14610904578063b6363b9914610960576101c4565b806389248575146106aa5780639b4bab3c146106ee578063a594da9514610732576101c4565b806344f7304d11610166578063617801cf11610140578063617801cf146104e757806368e1e8931461056b5780637cf75cec1461062257806380b4cb8b14610666576101c4565b806344f7304d1461041b5780635ea300a61461045f5780635f4b6a43146104a3576101c4565b80631bdb4ddb116101a25780631bdb4ddb146102c55780633532dfd31461034957806340d347a01461038d578063436818a314610411576101c4565b80630c48225a146101c957806310d7a09d1461020d57806319836d8214610269575b600080fd5b61020b600480360360208110156101df57600080fd5b81019080803573ffffffffffffffffffffffffffffffffffffffff169060200190929190505050610b6d565b005b61024f6004803603602081101561022357600080fd5b81019080803573ffffffffffffffffffffffffffffffffffffffff169060200190929190505050610f9e565b604051808215151515815260200191505060405180910390f35b6102ab6004803603602081101561027f57600080fd5b81019080803573ffffffffffffffffffffffffffffffffffffffff169060200190929190505050611149565b604051808215151515815260200191505060405180910390f35b610307600480360360208110156102db57600080fd5b81019080803573ffffffffffffffffffffffffffffffffffffffff16906020019092919050505061156a565b604051808273ffffffffffffffffffffffffffffffffffffffff1673ffffffffffffffffffffffffffffffffffffffff16815260200191505060405180910390f35b61038b6004803603602081101561035f57600080fd5b81019080803573ffffffffffffffffffffffffffffffffffffffff1690602001909291905050506115d3565b005b6103cf600480360360208110156103a357600080fd5b81019080803573ffffffffffffffffffffffffffffffffffffffff169060200190929190505050611890565b604051808273ffffffffffffffffffffffffffffffffffffffff1673ffffffffffffffffffffffffffffffffffffffff16815260200191505060405180910390f35b6104196119e6565b005b61045d6004803603602081101561043157600080fd5b81019080803573ffffffffffffffffffffffffffffffffffffffff169060200190929190505050611bbc565b005b6104a16004803603602081101561047557600080fd5b81019080803573ffffffffffffffffffffffffffffffffffffffff169060200190929190505050611e8c565b005b6104e5600480360360208110156104b957600080fd5b81019080803573ffffffffffffffffffffffffffffffffffffffff169060200190929190505050612166565b005b610529600480360360208110156104fd57600080fd5b81019080803573ffffffffffffffffffffffffffffffffffffffff169060200190929190505050612406565b604051808273ffffffffffffffffffffffffffffffffffffffff1673ffffffffffffffffffffffffffffffffffffffff16815260200191505060405180910390f35b6105ad6004803603602081101561058157600080fd5b81019080803573ffffffffffffffffffffffffffffffffffffffff16906020019092919050505061246f565b604051808373ffffffffffffffffffffffffffffffffffffffff1673ffffffffffffffffffffffffffffffffffffffff1681526020018273ffffffffffffffffffffffffffffffffffffffff1673ffffffffffffffffffffffffffffffffffffffff1681526020019250505060405180910390f35b6106646004803603602081101561063857600080fd5b81019080803573ffffffffffffffffffffffffffffffffffffffff169060200190929190505050612541565b005b6106a86004803603602081101561067c57600080fd5b81019080803573ffffffffffffffffffffffffffffffffffffffff16906020019092919050505061281b565b005b6106ec600480360360208110156106c057600080fd5b81019080803573ffffffffffffffffffffffffffffffffffffffff169060200190929190505050612ad8565b005b6107306004803603602081101561070457600080fd5b81019080803573ffffffffffffffffffffffffffffffffffffffff169060200190929190505050612d9b565b005b61073a6131cc565b6040518080602001828103825283818151815260200191508051906020019060200280838360005b8381101561077d578082015181840152602081019050610762565b505050509050019250505060405180910390f35b6107996133ce565b60405180806020018060200180602001848103845287818151815260200191508051906020019060200280838360005b838110156107e45780820151818401526020810190506107c9565b50505050905001848103835286818151815260200191508051906020019060200280838360005b8381101561082657808201518184015260208101905061080b565b50505050905001848103825285818151815260200191508051906020019060200280838360005b8381101561086857808201518184015260208101905061084d565b50505050905001965050505050505060405180910390f35b6108c26004803603602081101561089657600080fd5b81019080803573ffffffffffffffffffffffffffffffffffffffff16906020019092919050505061381f565b604051808273ffffffffffffffffffffffffffffffffffffffff1673ffffffffffffffffffffffffffffffffffffffff16815260200191505060405180910390f35b6109466004803603602081101561091a57600080fd5b81019080803573ffffffffffffffffffffffffffffffffffffffff169060200190929190505050613975565b604051808215151515815260200191505060405180910390f35b6109686139cb565b005b6109ac6004803603602081101561098057600080fd5b81019080803573ffffffffffffffffffffffffffffffffffffffff169060200190929190505050613ba2565b604051808215151515815260200191505060405180910390f35b610a08600480360360208110156109dc57600080fd5b81019080803573ffffffffffffffffffffffffffffffffffffffff169060200190929190505050613d4d565b604051808215151515815260200191505060405180910390f35b610a2a613da3565b005b610a34613f68565b6040518080602001828103825283818151815260200191508051906020019060200280838360005b83811015610a77578082015181840152602081019050610a5c565b505050509050019250505060405180910390f35b610a9361416a565b005b610ad760048036036020811015610aab57600080fd5b81019080803573ffffffffffffffffffffffffffffffffffffffff16906020019092919050505061432f565b604051808215151515815260200191505060405180910390f35b610b5360048036036040811015610b0757600080fd5b81019080803573ffffffffffffffffffffffffffffffffffffffff169060200190929190803573ffffffffffffffffffffffffffffffffffffffff1690602001909291905050506143ca565b604051808215151515815260200191505060405180910390f35b80600073ffffffffffffffffffffffffffffffffffffffff16600160008373ffffffffffffffffffffffffffffffffffffffff1673ffffffffffffffffffffffffffffffffffffffff16815260200190815260200160002060000160009054906101000a900473ffffffffffffffffffffffffffffffffffffffff1673ffffffffffffffffffffffffffffffffffffffff161415610c56576040517f08c379a00000000000000000000000000000000000000000000000000000000081526004018080602001828103825260268152602001806147176026913960400191505060405180910390fd5b33600360008273ffffffffffffffffffffffffffffffffffffffff1673ffffffffffffffffffffffffffffffffffffffff16815260200190815260200160002060009054906101000a900460ff16610d16576040517f08c379a00000000000000000000000000000000000000000000000000000000081526004018080602001828103825260188152602001807f546172676574206973206e6f7420612070726f7669646572000000000000000081525060200191505060405180910390fd5b600760008473ffffffffffffffffffffffffffffffffffffffff1673ffffffffffffffffffffffffffffffffffffffff16815260200190815260200160002060003373ffffffffffffffffffffffffffffffffffffffff1673ffffffffffffffffffffffffffffffffffffffff16815260200190815260200160002060009054906101000a900460ff16610df5576040517f08c379a00000000000000000000000000000000000000000000000000000000081526004018080602001828103825260398152602001806146de6039913960400191505060405180910390fd5b33600160008573ffffffffffffffffffffffffffffffffffffffff1673ffffffffffffffffffffffffffffffffffffffff16815260200190815260200160002060010160006101000a81548173ffffffffffffffffffffffffffffffffffffffff021916908373ffffffffffffffffffffffffffffffffffffffff160217905550600760008473ffffffffffffffffffffffffffffffffffffffff1673ffffffffffffffffffffffffffffffffffffffff16815260200190815260200160002060003373ffffffffffffffffffffffffffffffffffffffff1673ffffffffffffffffffffffffffffffffffffffff16815260200190815260200160002060006101000a81549060ff02191690557ffc1f5ab3e1859f6735ce50a83f4307f647b1db389987a817c2b437301b4d37d58333604051808373ffffffffffffffffffffffffffffffffffffffff1673ffffffffffffffffffffffffffffffffffffffff1681526020018273ffffffffffffffffffffffffffffffffffffffff1673ffffffffffffffffffffffffffffffffffffffff1681526020019250505060405180910390a1505050565b6000600260008373ffffffffffffffffffffffffffffffffffffffff1673ffffffffffffffffffffffffffffffffffffffff16815260200190815260200160002060009054906101000a900460ff16610ffa5760009050611144565b6000809054906101000a900473ffffffffffffffffffffffffffffffffffffffff1673ffffffffffffffffffffffffffffffffffffffff1663fe9fbb80600460008573ffffffffffffffffffffffffffffffffffffffff1673ffffffffffffffffffffffffffffffffffffffff16815260200190815260200160002060009054906101000a900473ffffffffffffffffffffffffffffffffffffffff166040518263ffffffff1660e01b8152600401808273ffffffffffffffffffffffffffffffffffffffff1673ffffffffffffffffffffffffffffffffffffffff16815260200191505060206040518083038186803b1580156110f757600080fd5b505afa15801561110b573d6000803e3d6000fd5b505050506040513d602081101561112157600080fd5b810190808051906020019092919050505061113f5760009050611144565b600190505b919050565b600080600160008473ffffffffffffffffffffffffffffffffffffffff1673ffffffffffffffffffffffffffffffffffffffff16815260200190815260200160002060010160009054906101000a900473ffffffffffffffffffffffffffffffffffffffff1690506000600160008573ffffffffffffffffffffffffffffffffffffffff1673ffffffffffffffffffffffffffffffffffffffff16815260200190815260200160002060000160009054906101000a900473ffffffffffffffffffffffffffffffffffffffff169050600260008273ffffffffffffffffffffffffffffffffffffffff1673ffffffffffffffffffffffffffffffffffffffff16815260200190815260200160002060009054906101000a900460ff1661127457600092505050611565565b6000809054906101000a900473ffffffffffffffffffffffffffffffffffffffff1673ffffffffffffffffffffffffffffffffffffffff1663fe9fbb80600460008473ffffffffffffffffffffffffffffffffffffffff1673ffffffffffffffffffffffffffffffffffffffff16815260200190815260200160002060009054906101000a900473ffffffffffffffffffffffffffffffffffffffff166040518263ffffffff1660e01b8152600401808273ffffffffffffffffffffffffffffffffffffffff1673ffffffffffffffffffffffffffffffffffffffff16815260200191505060206040518083038186803b15801561137157600080fd5b505afa158015611385573d6000803e3d6000fd5b505050506040513d602081101561139b57600080fd5b81019080805190602001909291905050506113bb57600092505050611565565b600360008373ffffffffffffffffffffffffffffffffffffffff1673ffffffffffffffffffffffffffffffffffffffff16815260200190815260200160002060009054906101000a900460ff1661141757600092505050611565565b6000809054906101000a900473ffffffffffffffffffffffffffffffffffffffff1673ffffffffffffffffffffffffffffffffffffffff1663fe9fbb80600560008573ffffffffffffffffffffffffffffffffffffffff1673ffffffffffffffffffffffffffffffffffffffff16815260200190815260200160002060009054906101000a900473ffffffffffffffffffffffffffffffffffffffff166040518263ffffffff1660e01b8152600401808273ffffffffffffffffffffffffffffffffffffffff1673ffffffffffffffffffffffffffffffffffffffff16815260200191505060206040518083038186803b15801561151457600080fd5b505afa158015611528573d6000803e3d6000fd5b505050506040513d602081101561153e57600080fd5b810190808051906020019092919050505061155e57600092505050611565565b6001925050505b919050565b6000600560008373ffffffffffffffffffffffffffffffffffffffff1673ffffffffffffffffffffffffffffffffffffffff16815260200190815260200160002060009054906101000a900473ffffffffffffffffffffffffffffffffffffffff169050919050565b336000809054906101000a900473ffffffffffffffffffffffffffffffffffffffff1673ffffffffffffffffffffffffffffffffffffffff1663fe9fbb80336040518263ffffffff1660e01b8152600401808273ffffffffffffffffffffffffffffffffffffffff1673ffffffffffffffffffffffffffffffffffffffff16815260200191505060206040518083038186803b15801561167257600080fd5b505afa158015611686573d6000803e3d6000fd5b505050506040513d602081101561169c57600080fd5b81019080805190602001909291905050506116b657600080fd5b81600260008273ffffffffffffffffffffffffffffffffffffffff1673ffffffffffffffffffffffffffffffffffffffff16815260200190815260200160002060009054906101000a900460ff16611776576040517f08c379a00000000000000000000000000000000000000000000000000000000081526004018080602001828103825260178152602001807f546172676574206973206e6f7420616e2069737375657200000000000000000081525060200191505060405180910390fd5b33600460008573ffffffffffffffffffffffffffffffffffffffff1673ffffffffffffffffffffffffffffffffffffffff16815260200190815260200160002060006101000a81548173ffffffffffffffffffffffffffffffffffffffff021916908373ffffffffffffffffffffffffffffffffffffffff1602179055507fd2443a80de68853ccf79c6e9999664d82970b25419fcf90063482532b5150b708333604051808373ffffffffffffffffffffffffffffffffffffffff1673ffffffffffffffffffffffffffffffffffffffff1681526020018273ffffffffffffffffffffffffffffffffffffffff1673ffffffffffffffffffffffffffffffffffffffff1681526020019250505060405180910390a1505050565b600081600073ffffffffffffffffffffffffffffffffffffffff16600160008373ffffffffffffffffffffffffffffffffffffffff1673ffffffffffffffffffffffffffffffffffffffff16815260200190815260200160002060000160009054906101000a900473ffffffffffffffffffffffffffffffffffffffff1673ffffffffffffffffffffffffffffffffffffffff16141561197b576040517f08c379a00000000000000000000000000000000000000000000000000000000081526004018080602001828103825260268152602001806147176026913960400191505060405180910390fd5b600160008473ffffffffffffffffffffffffffffffffffffffff1673ffffffffffffffffffffffffffffffffffffffff16815260200190815260200160002060010160009054906101000a900473ffffffffffffffffffffffffffffffffffffffff16915050919050565b33600260008273ffffffffffffffffffffffffffffffffffffffff1673ffffffffffffffffffffffffffffffffffffffff16815260200190815260200160002060009054906101000a900460ff16611aa6576040517f08c379a00000000000000000000000000000000000000000000000000000000081526004018080602001828103825260178152602001807f546172676574206973206e6f7420616e2069737375657200000000000000000081525060200191505060405180910390fd5b600260003373ffffffffffffffffffffffffffffffffffffffff1673ffffffffffffffffffffffffffffffffffffffff16815260200190815260200160002060006101000a81549060ff0219169055600460003373ffffffffffffffffffffffffffffffffffffffff1673ffffffffffffffffffffffffffffffffffffffff16815260200190815260200160002060006101000a81549073ffffffffffffffffffffffffffffffffffffffff02191690557e8593d7e5c91551f89140afd83c0123122a5ec7139cfa79177e082dd2aebb4633604051808273ffffffffffffffffffffffffffffffffffffffff1673ffffffffffffffffffffffffffffffffffffffff16815260200191505060405180910390a150565b33600260008273ffffffffffffffffffffffffffffffffffffffff1673ffffffffffffffffffffffffffffffffffffffff16815260200190815260200160002060009054906101000a900460ff16611c7c576040517f08c379a00000000000000000000000000000000000000000000000000000000081526004018080602001828103825260178152602001807f546172676574206973206e6f7420616e2069737375657200000000000000000081525060200191505060405180910390fd5b60405180604001604052803373ffffffffffffffffffffffffffffffffffffffff168152602001600073ffffffffffffffffffffffffffffffffffffffff16815250600160008473ffffffffffffffffffffffffffffffffffffffff1673ffffffffffffffffffffffffffffffffffffffff16815260200190815260200160002060008201518160000160006101000a81548173ffffffffffffffffffffffffffffffffffffffff021916908373ffffffffffffffffffffffffffffffffffffffff16021790555060208201518160010160006101000a81548173ffffffffffffffffffffffffffffffffffffffff021916908373ffffffffffffffffffffffffffffffffffffffff1602179055509050506008829080600181540180825580915050600190039060005260206000200160009091909190916101000a81548173ffffffffffffffffffffffffffffffffffffffff021916908373ffffffffffffffffffffffffffffffffffffffff1602179055507f8f63f1cb80595971127f1c3e4c8db3ad82fa823e2756234601bd6e04177af3f78233604051808373ffffffffffffffffffffffffffffffffffffffff1673ffffffffffffffffffffffffffffffffffffffff1681526020018273ffffffffffffffffffffffffffffffffffffffff1673ffffffffffffffffffffffffffffffffffffffff1681526020019250505060405180910390a15050565b33600073ffffffffffffffffffffffffffffffffffffffff16600160008373ffffffffffffffffffffffffffffffffffffffff1673ffffffffffffffffffffffffffffffffffffffff16815260200190815260200160002060000160009054906101000a900473ffffffffffffffffffffffffffffffffffffffff1673ffffffffffffffffffffffffffffffffffffffff161415611f75576040517f08c379a00000000000000000000000000000000000000000000000000000000081526004018080602001828103825260268152602001806147176026913960400191505060405180910390fd5b81600260008273ffffffffffffffffffffffffffffffffffffffff1673ffffffffffffffffffffffffffffffffffffffff16815260200190815260200160002060009054906101000a900460ff16612035576040517f08c379a00000000000000000000000000000000000000000000000000000000081526004018080602001828103825260178152602001807f546172676574206973206e6f7420616e2069737375657200000000000000000081525060200191505060405180910390fd5b6001600660003373ffffffffffffffffffffffffffffffffffffffff1673ffffffffffffffffffffffffffffffffffffffff16815260200190815260200160002060008573ffffffffffffffffffffffffffffffffffffffff1673ffffffffffffffffffffffffffffffffffffffff16815260200190815260200160002060006101000a81548160ff0219169083151502179055507f29f276e8fde2bc00246cf75dfd692912e7ab567fa937554dcd88764d32d94cb73384604051808373ffffffffffffffffffffffffffffffffffffffff1673ffffffffffffffffffffffffffffffffffffffff1681526020018273ffffffffffffffffffffffffffffffffffffffff1673ffffffffffffffffffffffffffffffffffffffff1681526020019250505060405180910390a1505050565b80600360008273ffffffffffffffffffffffffffffffffffffffff1673ffffffffffffffffffffffffffffffffffffffff16815260200190815260200160002060009054906101000a900460ff16612226576040517f08c379a00000000000000000000000000000000000000000000000000000000081526004018080602001828103825260188152602001807f546172676574206973206e6f7420612070726f7669646572000000000000000081525060200191505060405180910390fd5b3373ffffffffffffffffffffffffffffffffffffffff16600560008473ffffffffffffffffffffffffffffffffffffffff1673ffffffffffffffffffffffffffffffffffffffff16815260200190815260200160002060009054906101000a900473ffffffffffffffffffffffffffffffffffffffff1673ffffffffffffffffffffffffffffffffffffffff1614612309576040517f08c379a000000000000000000000000000000000000000000000000000000000815260040180806020018281038252602c815260200180614685602c913960400191505060405180910390fd5b600560008373ffffffffffffffffffffffffffffffffffffffff1673ffffffffffffffffffffffffffffffffffffffff16815260200190815260200160002060006101000a81549073ffffffffffffffffffffffffffffffffffffffff02191690557f43a637b9f1256c4ab83bd34706f850e6b1bfb9055b3f978163875a5f579bab258233604051808373ffffffffffffffffffffffffffffffffffffffff1673ffffffffffffffffffffffffffffffffffffffff1681526020018273ffffffffffffffffffffffffffffffffffffffff1673ffffffffffffffffffffffffffffffffffffffff1681526020019250505060405180910390a15050565b6000600460008373ffffffffffffffffffffffffffffffffffffffff1673ffffffffffffffffffffffffffffffffffffffff16815260200190815260200160002060009054906101000a900473ffffffffffffffffffffffffffffffffffffffff169050919050565b600080600160008473ffffffffffffffffffffffffffffffffffffffff1673ffffffffffffffffffffffffffffffffffffffff16815260200190815260200160002060000160009054906101000a900473ffffffffffffffffffffffffffffffffffffffff16600160008573ffffffffffffffffffffffffffffffffffffffff1673ffffffffffffffffffffffffffffffffffffffff16815260200190815260200160002060010160009054906101000a900473ffffffffffffffffffffffffffffffffffffffff1691509150915091565b33600073ffffffffffffffffffffffffffffffffffffffff16600160008373ffffffffffffffffffffffffffffffffffffffff1673ffffffffffffffffffffffffffffffffffffffff16815260200190815260200160002060000160009054906101000a900473ffffffffffffffffffffffffffffffffffffffff1673ffffffffffffffffffffffffffffffffffffffff16141561262a576040517f08c379a00000000000000000000000000000000000000000000000000000000081526004018080602001828103825260268152602001806147176026913960400191505060405180910390fd5b81600360008273ffffffffffffffffffffffffffffffffffffffff1673ffffffffffffffffffffffffffffffffffffffff16815260200190815260200160002060009054906101000a900460ff166126ea576040517f08c379a00000000000000000000000000000000000000000000000000000000081526004018080602001828103825260188152602001807f546172676574206973206e6f7420612070726f7669646572000000000000000081525060200191505060405180910390fd5b6001600760003373ffffffffffffffffffffffffffffffffffffffff1673ffffffffffffffffffffffffffffffffffffffff16815260200190815260200160002060008573ffffffffffffffffffffffffffffffffffffffff1673ffffffffffffffffffffffffffffffffffffffff16815260200190815260200160002060006101000a81548160ff0219169083151502179055507fcfb80cfdc3fbbf2909d918406a4f703f6bf8b4065b9b11cbd2e0fc5eeab50faa3384604051808373ffffffffffffffffffffffffffffffffffffffff1673ffffffffffffffffffffffffffffffffffffffff1681526020018273ffffffffffffffffffffffffffffffffffffffff1673ffffffffffffffffffffffffffffffffffffffff1681526020019250505060405180910390a1505050565b80600360008273ffffffffffffffffffffffffffffffffffffffff1673ffffffffffffffffffffffffffffffffffffffff16815260200190815260200160002060009054906101000a900460ff166128db576040517f08c379a00000000000000000000000000000000000000000000000000000000081526004018080602001828103825260188152602001807f546172676574206973206e6f7420612070726f7669646572000000000000000081525060200191505060405180910390fd5b336000809054906101000a900473ffffffffffffffffffffffffffffffffffffffff1673ffffffffffffffffffffffffffffffffffffffff1663fe9fbb80336040518263ffffffff1660e01b8152600401808273ffffffffffffffffffffffffffffffffffffffff1673ffffffffffffffffffffffffffffffffffffffff16815260200191505060206040518083038186803b15801561297a57600080fd5b505afa15801561298e573d6000803e3d6000fd5b505050506040513d60208110156129a457600080fd5b81019080805190602001909291905050506129be57600080fd5b33600560008573ffffffffffffffffffffffffffffffffffffffff1673ffffffffffffffffffffffffffffffffffffffff16815260200190815260200160002060006101000a81548173ffffffffffffffffffffffffffffffffffffffff021916908373ffffffffffffffffffffffffffffffffffffffff1602179055507f2e4cb1f7add9e534721861339310df1cf445251c4b7426ea0c6945bdc20b1dc98333604051808373ffffffffffffffffffffffffffffffffffffffff1673ffffffffffffffffffffffffffffffffffffffff1681526020018273ffffffffffffffffffffffffffffffffffffffff1673ffffffffffffffffffffffffffffffffffffffff1681526020019250505060405180910390a1505050565b336000809054906101000a900473ffffffffffffffffffffffffffffffffffffffff1673ffffffffffffffffffffffffffffffffffffffff1663fe9fbb80336040518263ffffffff1660e01b8152600401808273ffffffffffffffffffffffffffffffffffffffff1673ffffffffffffffffffffffffffffffffffffffff16815260200191505060206040518083038186803b158015612b7757600080fd5b505afa158015612b8b573d6000803e3d6000fd5b505050506040513d6020811015612ba157600080fd5b8101908080519060200190929190505050612bbb57600080fd5b3373ffffffffffffffffffffffffffffffffffffffff16600460008473ffffffffffffffffffffffffffffffffffffffff1673ffffffffffffffffffffffffffffffffffffffff16815260200190815260200160002060009054906101000a900473ffffffffffffffffffffffffffffffffffffffff1673ffffffffffffffffffffffffffffffffffffffff1614612c9e576040517f08c379a000000000000000000000000000000000000000000000000000000000815260040180806020018281038252602a815260200180614611602a913960400191505060405180910390fd5b600460008373ffffffffffffffffffffffffffffffffffffffff1673ffffffffffffffffffffffffffffffffffffffff16815260200190815260200160002060006101000a81549073ffffffffffffffffffffffffffffffffffffffff02191690557f61d13638a0d3161f6d32c77c67a9fb09fa8fdde8a8f911d560e88514c3b94ea58233604051808373ffffffffffffffffffffffffffffffffffffffff1673ffffffffffffffffffffffffffffffffffffffff1681526020018273ffffffffffffffffffffffffffffffffffffffff1673ffffffffffffffffffffffffffffffffffffffff1681526020019250505060405180910390a15050565b80600073ffffffffffffffffffffffffffffffffffffffff16600160008373ffffffffffffffffffffffffffffffffffffffff1673ffffffffffffffffffffffffffffffffffffffff16815260200190815260200160002060000160009054906101000a900473ffffffffffffffffffffffffffffffffffffffff1673ffffffffffffffffffffffffffffffffffffffff161415612e84576040517f08c379a00000000000000000000000000000000000000000000000000000000081526004018080602001828103825260268152602001806147176026913960400191505060405180910390fd5b33600260008273ffffffffffffffffffffffffffffffffffffffff1673ffffffffffffffffffffffffffffffffffffffff16815260200190815260200160002060009054906101000a900460ff16612f44576040517f08c379a00000000000000000000000000000000000000000000000000000000081526004018080602001828103825260178152602001807f546172676574206973206e6f7420616e2069737375657200000000000000000081525060200191505060405180910390fd5b600660008473ffffffffffffffffffffffffffffffffffffffff1673ffffffffffffffffffffffffffffffffffffffff16815260200190815260200160002060003373ffffffffffffffffffffffffffffffffffffffff1673ffffffffffffffffffffffffffffffffffffffff16815260200190815260200160002060009054906101000a900460ff16613023576040517f08c379a000000000000000000000000000000000000000000000000000000000815260040180806020018281038252602d8152602001806146b1602d913960400191505060405180910390fd5b33600160008573ffffffffffffffffffffffffffffffffffffffff1673ffffffffffffffffffffffffffffffffffffffff16815260200190815260200160002060000160006101000a81548173ffffffffffffffffffffffffffffffffffffffff021916908373ffffffffffffffffffffffffffffffffffffffff160217905550600660008473ffffffffffffffffffffffffffffffffffffffff1673ffffffffffffffffffffffffffffffffffffffff16815260200190815260200160002060003373ffffffffffffffffffffffffffffffffffffffff1673ffffffffffffffffffffffffffffffffffffffff16815260200190815260200160002060006101000a81549060ff02191690557f1d21465a6ca0bd83d5618beba38ff45eeca5df39f61719fb23e4a4aa2a80a0f28333604051808373ffffffffffffffffffffffffffffffffffffffff1673ffffffffffffffffffffffffffffffffffffffff1681526020018273ffffffffffffffffffffffffffffffffffffffff1673ffffffffffffffffffffffffffffffffffffffff1681526020019250505060405180910390a1505050565b6060600080905060008090505b60098054905081101561328b576000600982815481106131f557fe5b9060005260206000200160009054906101000a900473ffffffffffffffffffffffffffffffffffffffff169050600260008273ffffffffffffffffffffffffffffffffffffffff1673ffffffffffffffffffffffffffffffffffffffff16815260200190815260200160002060009054906101000a900460ff161561327d5782806001019350505b5080806001019150506131d9565b506060816040519080825280602002602001820160405280156132bd5781602001602082028038833980820191505090505b509050600080905060008090505b6009805490508110156133c4576000600982815481106132e757fe5b9060005260206000200160009054906101000a900473ffffffffffffffffffffffffffffffffffffffff169050600260008273ffffffffffffffffffffffffffffffffffffffff1673ffffffffffffffffffffffffffffffffffffffff16815260200190815260200160002060009054906101000a900460ff16156133b6578084848151811061337357fe5b602002602001019073ffffffffffffffffffffffffffffffffffffffff16908173ffffffffffffffffffffffffffffffffffffffff168152505082806001019350505b5080806001019150506132cb565b5081935050505090565b6060806060600080905060008090505b6008805490508110156134d4576000600882815481106133fa57fe5b9060005260206000200160009054906101000a900473ffffffffffffffffffffffffffffffffffffffff169050600073ffffffffffffffffffffffffffffffffffffffff16600160008373ffffffffffffffffffffffffffffffffffffffff1673ffffffffffffffffffffffffffffffffffffffff16815260200190815260200160002060000160009054906101000a900473ffffffffffffffffffffffffffffffffffffffff1673ffffffffffffffffffffffffffffffffffffffff16146134c65782806001019350505b5080806001019150506133de565b50600080905060608260405190808252806020026020018201604052801561350b5781602001602082028038833980820191505090505b50905060608360405190808252806020026020018201604052801561353f5781602001602082028038833980820191505090505b5090506060846040519080825280602002602001820160405280156135735781602001602082028038833980820191505090505b50905060008090505b60088054905081101561380b5760006008828154811061359857fe5b9060005260206000200160009054906101000a900473ffffffffffffffffffffffffffffffffffffffff169050600073ffffffffffffffffffffffffffffffffffffffff16600160008373ffffffffffffffffffffffffffffffffffffffff1673ffffffffffffffffffffffffffffffffffffffff16815260200190815260200160002060000160009054906101000a900473ffffffffffffffffffffffffffffffffffffffff1673ffffffffffffffffffffffffffffffffffffffff16146137fd578085878151811061366857fe5b602002602001019073ffffffffffffffffffffffffffffffffffffffff16908173ffffffffffffffffffffffffffffffffffffffff1681525050600160008273ffffffffffffffffffffffffffffffffffffffff1673ffffffffffffffffffffffffffffffffffffffff16815260200190815260200160002060000160009054906101000a900473ffffffffffffffffffffffffffffffffffffffff1684878151811061371157fe5b602002602001019073ffffffffffffffffffffffffffffffffffffffff16908173ffffffffffffffffffffffffffffffffffffffff1681525050600160008273ffffffffffffffffffffffffffffffffffffffff1673ffffffffffffffffffffffffffffffffffffffff16815260200190815260200160002060010160009054906101000a900473ffffffffffffffffffffffffffffffffffffffff168387815181106137ba57fe5b602002602001019073ffffffffffffffffffffffffffffffffffffffff16908173ffffffffffffffffffffffffffffffffffffffff168152505085806001019650505b50808060010191505061357c565b508282829750975097505050505050909192565b600081600073ffffffffffffffffffffffffffffffffffffffff16600160008373ffffffffffffffffffffffffffffffffffffffff1673ffffffffffffffffffffffffffffffffffffffff16815260200190815260200160002060000160009054906101000a900473ffffffffffffffffffffffffffffffffffffffff1673ffffffffffffffffffffffffffffffffffffffff16141561390a576040517f08c379a00000000000000000000000000000000000000000000000000000000081526004018080602001828103825260268152602001806147176026913960400191505060405180910390fd5b600160008473ffffffffffffffffffffffffffffffffffffffff1673ffffffffffffffffffffffffffffffffffffffff16815260200190815260200160002060000160009054906101000a900473ffffffffffffffffffffffffffffffffffffffff16915050919050565b6000600360008373ffffffffffffffffffffffffffffffffffffffff1673ffffffffffffffffffffffffffffffffffffffff16815260200190815260200160002060009054906101000a900460ff169050919050565b33600360008273ffffffffffffffffffffffffffffffffffffffff1673ffffffffffffffffffffffffffffffffffffffff16815260200190815260200160002060009054906101000a900460ff16613a8b576040517f08c379a00000000000000000000000000000000000000000000000000000000081526004018080602001828103825260188152602001807f546172676574206973206e6f7420612070726f7669646572000000000000000081525060200191505060405180910390fd5b600360003373ffffffffffffffffffffffffffffffffffffffff1673ffffffffffffffffffffffffffffffffffffffff16815260200190815260200160002060006101000a81549060ff0219169055600560003373ffffffffffffffffffffffffffffffffffffffff1673ffffffffffffffffffffffffffffffffffffffff16815260200190815260200160002060006101000a81549073ffffffffffffffffffffffffffffffffffffffff02191690557f1589f8555933761a3cff8aa925061be3b46e2dd43f621322ab611d300f62b1d933604051808273ffffffffffffffffffffffffffffffffffffffff1673ffffffffffffffffffffffffffffffffffffffff16815260200191505060405180910390a150565b6000600360008373ffffffffffffffffffffffffffffffffffffffff1673ffffffffffffffffffffffffffffffffffffffff16815260200190815260200160002060009054906101000a900460ff16613bfe5760009050613d48565b6000809054906101000a900473ffffffffffffffffffffffffffffffffffffffff1673ffffffffffffffffffffffffffffffffffffffff1663fe9fbb80600560008573ffffffffffffffffffffffffffffffffffffffff1673ffffffffffffffffffffffffffffffffffffffff16815260200190815260200160002060009054906101000a900473ffffffffffffffffffffffffffffffffffffffff166040518263ffffffff1660e01b8152600401808273ffffffffffffffffffffffffffffffffffffffff1673ffffffffffffffffffffffffffffffffffffffff16815260200191505060206040518083038186803b158015613cfb57600080fd5b505afa158015613d0f573d6000803e3d6000fd5b505050506040513d6020811015613d2557600080fd5b8101908080519060200190929190505050613d435760009050613d48565b600190505b919050565b6000600260008373ffffffffffffffffffffffffffffffffffffffff1673ffffffffffffffffffffffffffffffffffffffff16815260200190815260200160002060009054906101000a900460ff169050919050565b33600260008273ffffffffffffffffffffffffffffffffffffffff1673ffffffffffffffffffffffffffffffffffffffff16815260200190815260200160002060009054906101000a900460ff1615613e47576040517f08c379a00000000000000000000000000000000000000000000000000000000081526004018080602001828103825260248152602001806146616024913960400191505060405180910390fd5b6001600260003373ffffffffffffffffffffffffffffffffffffffff1673ffffffffffffffffffffffffffffffffffffffff16815260200190815260200160002060006101000a81548160ff0219169083151502179055506009339080600181540180825580915050600190039060005260206000200160009091909190916101000a81548173ffffffffffffffffffffffffffffffffffffffff021916908373ffffffffffffffffffffffffffffffffffffffff1602179055507f5ffca17a43ef1e2ec4f44a722eac4c6437172d7c63e0e60b72cbef015654c7ef33604051808273ffffffffffffffffffffffffffffffffffffffff1673ffffffffffffffffffffffffffffffffffffffff16815260200191505060405180910390a150565b6060600080905060008090505b600a80549050811015614027576000600a8281548110613f9157fe5b9060005260206000200160009054906101000a900473ffffffffffffffffffffffffffffffffffffffff169050600360008273ffffffffffffffffffffffffffffffffffffffff1673ffffffffffffffffffffffffffffffffffffffff16815260200190815260200160002060009054906101000a900460ff16156140195782806001019350505b508080600101915050613f75565b506060816040519080825280602002602001820160405280156140595781602001602082028038833980820191505090505b509050600080905060008090505b600a80549050811015614160576000600a828154811061408357fe5b9060005260206000200160009054906101000a900473ffffffffffffffffffffffffffffffffffffffff169050600360008273ffffffffffffffffffffffffffffffffffffffff1673ffffffffffffffffffffffffffffffffffffffff16815260200190815260200160002060009054906101000a900460ff1615614152578084848151811061410f57fe5b602002602001019073ffffffffffffffffffffffffffffffffffffffff16908173ffffffffffffffffffffffffffffffffffffffff168152505082806001019350505b508080600101915050614067565b5081935050505090565b33600360008273ffffffffffffffffffffffffffffffffffffffff1673ffffffffffffffffffffffffffffffffffffffff16815260200190815260200160002060009054906101000a900460ff161561420e576040517f08c379a000000000000000000000000000000000000000000000000000000000815260040180806020018281038252602681526020018061463b6026913960400191505060405180910390fd5b6001600360003373ffffffffffffffffffffffffffffffffffffffff1673ffffffffffffffffffffffffffffffffffffffff16815260200190815260200160002060006101000a81548160ff021916908315150217905550600a339080600181540180825580915050600190039060005260206000200160009091909190916101000a81548173ffffffffffffffffffffffffffffffffffffffff021916908373ffffffffffffffffffffffffffffffffffffffff1602179055507f70abce74777b3838ae60a33a6b9a87d9d25532668fe4fea548554c55868579c033604051808273ffffffffffffffffffffffffffffffffffffffff1673ffffffffffffffffffffffffffffffffffffffff16815260200191505060405180910390a150565b60008073ffffffffffffffffffffffffffffffffffffffff16600160008473ffffffffffffffffffffffffffffffffffffffff1673ffffffffffffffffffffffffffffffffffffffff16815260200190815260200160002060000160009054906101000a900473ffffffffffffffffffffffffffffffffffffffff1673ffffffffffffffffffffffffffffffffffffffff1614159050919050565b600082600073ffffffffffffffffffffffffffffffffffffffff16600160008373ffffffffffffffffffffffffffffffffffffffff1673ffffffffffffffffffffffffffffffffffffffff16815260200190815260200160002060000160009054906101000a900473ffffffffffffffffffffffffffffffffffffffff1673ffffffffffffffffffffffffffffffffffffffff1614156144b5576040517f08c379a00000000000000000000000000000000000000000000000000000000081526004018080602001828103825260268152602001806147176026913960400191505060405180910390fd5b82600360008273ffffffffffffffffffffffffffffffffffffffff1673ffffffffffffffffffffffffffffffffffffffff16815260200190815260200160002060009054906101000a900460ff16614575576040517f08c379a00000000000000000000000000000000000000000000000000000000081526004018080602001828103825260188152602001807f546172676574206973206e6f7420612070726f7669646572000000000000000081525060200191505060405180910390fd5b8373ffffffffffffffffffffffffffffffffffffffff16600160008773ffffffffffffffffffffffffffffffffffffffff1673ffffffffffffffffffffffffffffffffffffffff16815260200190815260200160002060010160009054906101000a900473ffffffffffffffffffffffffffffffffffffffff1673ffffffffffffffffffffffffffffffffffffffff1614925050509291505056fe697373756572206973206e6f7420747275737465642062792073656e64696e6720617574686f7269747954617267657420697320616c6c726561647920612072656769737465642070726f766964657254617267657420697320616c6c726561647920612072656769737465642069737375657250726f7669646572206973206e6f7420747275737465642062792073656e64696e6720617574686f726974794d6f766520686173206e6f74206265656e2070726f706f736564206279206c6963656e736520686f6c6465722e50726f7669646572206d6f76656d656e7420686173206e6f74206265656e2070726f706f736564206279206c6963656e736520686f6c646572546172676574206164647265737320646f6573206e6f7420686176652061206c6963656e7365a2646970667358221220682f621393e30527337cbcefeb23d9b3086371dd5d52989e4415e76a86082ac664736f6c63430006010033",
  "source": "pragma solidity ^0.6.1;\nimport \"./iface/IAuthorization.sol\";\nimport \"./iface/ILicenseProviderManager.sol\";\n\ncontract LicenseProvider is ILicenseProviderManager {\n    struct License {\n        address trustingIssuer;\n        address trustingProvider;\n    }\n\n    IAuthorization authorityContract;\n\n    mapping(address => License) licenses;\n    mapping(address => bool) isIssuer;\n    mapping(address => bool) isProvider;\n    mapping(address => address) issuerTrustedByAuthority;\n    mapping(address => address) providerTrustedByAuthority;\n    mapping(address => mapping(address => bool)) issuerMoveProposed;\n    mapping(address => mapping(address => bool)) providerMoveProposed;\n\n    address[] licenseAddresses;\n    address[] licenseIssuers;\n    address[] licenseProvider;\n\n    modifier addressIsLicense(address _address) {\n        require(\n            licenses[_address].trustingIssuer != address(0x0),\n            \"Target address does not have a license\"\n        );\n        _;\n    }\n\n    modifier addressIsIssuer(address _address) {\n        require(isIssuer[_address], \"Target is not an issuer\");\n        _;\n    }\n\n    modifier addressIsNotIssuer(address _address) {\n        require(!isIssuer[_address], \"Target is allready a registed issuer\");\n        _;\n    }\n\n    modifier addressIsProvider(address _address) {\n        require(isProvider[_address], \"Target is not a provider\");\n        _;\n    }\n\n    modifier addressIsNotProvider(address _address) {\n        require(\n            !isProvider[_address],\n            \"Target is allready a registed provider\"\n        );\n        _;\n    }\n\n    modifier addressIsAuthority(address _address) {\n        require(authorityContract.isAuthorized(msg.sender));\n        _;\n    }\n\n    event NewLicense(address _license, address _issuer);\n    event RemovedLicense(address _license);\n    event NewLicenseIssuer(address _issuer);\n    event RemovedLicenseIssuer(address _issuer);\n    event TrustInIssuerAdded(address _issuer, address _authority);\n    event TrustInIssuerRemoved(address _issuer, address _authority);\n    event IssuerMoveProposalAdded(address _license, address _issuer);\n    event IssuerMoveApproved(address _license, address _issuer);\n    event ProviderRegistered(address _provider);\n    event ProviderRemoved(address _provider);\n    event TrustInProviderAdded(address _provider, address _authority);\n    event TrustInProviderRemoved(address _provider, address _authority);\n    event ProviderMoveProposalAdded(address _license, address _provider);\n    event ProviderMoveApproved(address _license, address _provider);\n\n    constructor(address _address) public {\n        authorityContract = IAuthorization(_address);\n    }\n\n    function isLicense(address _licenseAddress) external view returns (bool) {\n        return licenses[_licenseAddress].trustingIssuer != address(0x0);\n    }\n\n    function getLicense(address _licenseAddress)\n        external\n        view\n        returns (address, address)\n    {\n        return (\n            licenses[_licenseAddress].trustingIssuer,\n            licenses[_licenseAddress].trustingProvider\n        );\n    }\n\n    function isLicenseTrusted(address _licenseAddress)\n        external\n        view\n        override\n        returns (bool)\n    {\n        address provider = licenses[_licenseAddress].trustingProvider;\n        address issuer = licenses[_licenseAddress].trustingIssuer;\n\n        if (!isIssuer[issuer]) return false;\n        if (!authorityContract.isAuthorized(issuerTrustedByAuthority[issuer]))\n            return false;\n\n        if (!isProvider[provider]) return false;\n        if (\n            !authorityContract.isAuthorized(\n                providerTrustedByAuthority[provider]\n            )\n        ) return false;\n\n        return true;\n    }\n\n    function registerSenderAsIssuer()\n        external\n        override\n        addressIsNotIssuer(msg.sender)\n    {\n        isIssuer[msg.sender] = true;\n        licenseIssuers.push(msg.sender);\n        emit NewLicenseIssuer(msg.sender);\n    }\n\n    function removeSenderAsIssuer()\n        external\n        override\n        addressIsIssuer(msg.sender)\n    {\n        delete isIssuer[msg.sender];\n        delete issuerTrustedByAuthority[msg.sender];\n        emit RemovedLicenseIssuer(msg.sender);\n    }\n\n    function isLicenseIssuer(address _address) external view returns (bool) {\n        return isIssuer[_address];\n    }\n\n    function isTrustedLicenseIssuer(address _address)\n        external\n        view\n        override\n        returns (bool)\n    {\n        if (!isIssuer[_address]) return false;\n        if (!authorityContract.isAuthorized(issuerTrustedByAuthority[_address]))\n            return false;\n        return true;\n    }\n\n    function addTrustInLicenseIssuer(address _address)\n        external\n        override\n        addressIsAuthority(msg.sender)\n        addressIsIssuer(_address)\n    {\n        issuerTrustedByAuthority[_address] = msg.sender;\n        emit TrustInIssuerAdded(_address, msg.sender);\n    }\n\n    function removeTrustInLicenseIssuer(address _address)\n        external\n        override\n        addressIsAuthority(msg.sender)\n    {\n        require(\n            issuerTrustedByAuthority[_address] == msg.sender,\n            \"issuer is not trusted by sending authority\"\n        );\n        delete issuerTrustedByAuthority[_address];\n        emit TrustInIssuerRemoved(_address, msg.sender);\n    }\n\n    function issueLicenseToAddress(address _address)\n        external\n        override\n        addressIsIssuer(msg.sender)\n    {\n        licenses[_address] = License(msg.sender, address(0x0));\n        licenseAddresses.push(_address);\n        emit NewLicense(_address, msg.sender);\n    }\n\n    function proposeMoveToLicenseIssuer(address _address)\n        external\n        override\n        addressIsLicense(msg.sender)\n        addressIsIssuer(_address)\n    {\n        issuerMoveProposed[msg.sender][_address] = true;\n        emit IssuerMoveProposalAdded(msg.sender, _address);\n    }\n\n    function approveMoveToLicenseIssuer(address _address)\n        external\n        override\n        addressIsLicense(_address)\n        addressIsIssuer(msg.sender)\n    {\n        require(\n            issuerMoveProposed[_address][msg.sender],\n            \"Move has not been proposed by license holder.\"\n        );\n        licenses[_address].trustingIssuer = msg.sender;\n        delete issuerMoveProposed[_address][msg.sender];\n        emit IssuerMoveApproved(_address, msg.sender);\n    }\n\n    function registerProvider()\n        external\n        override\n        addressIsNotProvider(msg.sender)\n    {\n        isProvider[msg.sender] = true;\n        licenseProvider.push(msg.sender);\n        emit ProviderRegistered(msg.sender);\n    }\n\n    function removeProvider() external override addressIsProvider(msg.sender) {\n        delete isProvider[msg.sender];\n        delete providerTrustedByAuthority[msg.sender];\n        emit ProviderRemoved(msg.sender);\n    }\n\n    function isLicenseProvider(address _address) external view returns (bool) {\n        return isProvider[_address];\n    }\n\n    function isTrustedProvider(address _address)\n        external\n        view\n        override\n        returns (bool)\n    {\n        if (!isProvider[_address]) return false;\n        if (\n            !authorityContract.isAuthorized(\n                providerTrustedByAuthority[_address]\n            )\n        ) return false;\n        return true;\n    }\n\n    function addTrustInProvider(address _address)\n        external\n        override\n        addressIsProvider(_address)\n        addressIsAuthority(msg.sender)\n    {\n        providerTrustedByAuthority[_address] = msg.sender;\n        emit TrustInProviderAdded(_address, msg.sender);\n    }\n\n    function removeTrustInProvider(address _address)\n        external\n        override\n        addressIsProvider(_address)\n    {\n        require(\n            providerTrustedByAuthority[_address] == msg.sender,\n            \"Provider is not trusted by sending authority\"\n        );\n        delete providerTrustedByAuthority[_address];\n        emit TrustInProviderRemoved(_address, msg.sender);\n    }\n\n    function proposeLicenseProviderMovement(address _toAddress)\n        external\n        override\n        addressIsLicense(msg.sender)\n        addressIsProvider(_toAddress)\n    {\n        providerMoveProposed[msg.sender][_toAddress] = true;\n        emit ProviderMoveProposalAdded(msg.sender, _toAddress);\n    }\n\n    function approveLicenseProviderMovement(address _licenseAddress)\n        external\n        override\n        addressIsLicense(_licenseAddress)\n        addressIsProvider(msg.sender)\n    {\n        require(\n            providerMoveProposed[_licenseAddress][msg.sender],\n            \"Provider movement has not been proposed by license holder\"\n        );\n        licenses[_licenseAddress].trustingProvider = msg.sender;\n        delete providerMoveProposed[_licenseAddress][msg.sender];\n        emit ProviderMoveApproved(_licenseAddress, msg.sender);\n    }\n\n    function isLicenseRegisteredWithProvider(\n        address _license,\n        address _provider\n    )\n        external\n        view\n        override\n        addressIsLicense(_license)\n        addressIsProvider(_provider)\n        returns (bool)\n    {\n        return licenses[_license].trustingProvider == _provider;\n    }\n\n    function getIsserOfLicense(address _licenseAddress)\n        external\n        view\n        override\n        addressIsLicense(_licenseAddress)\n        returns (address)\n    {\n        return licenses[_licenseAddress].trustingIssuer;\n    }\n\n    function getProviderForLicense(address _licenseAddress)\n        external\n        view\n        override\n        addressIsLicense(_licenseAddress)\n        returns (address)\n    {\n        return licenses[_licenseAddress].trustingProvider;\n    }\n\n    function getLicenses()\n        external\n        view\n        returns (address[] memory, address[] memory, address[] memory)\n    {\n        uint256 licenseCount = 0;\n\n        for (uint256 i = 0; i < licenseAddresses.length; i++) {\n            address licenseAddress = licenseAddresses[i];\n            if (licenses[licenseAddress].trustingIssuer != address(0x0)) {\n                licenseCount++;\n            }\n        }\n\n        uint256 returnCount = 0;\n        address[] memory returnLicenseAddresses = new address[](licenseCount);\n        address[] memory returnTrustingIssuers = new address[](licenseCount);\n        address[] memory returnTrustingProviders = new address[](licenseCount);\n\n        for (uint256 i = 0; i < licenseAddresses.length; i++) {\n            address licenseAddress = licenseAddresses[i];\n            if (licenses[licenseAddress].trustingIssuer != address(0x0)) {\n                returnLicenseAddresses[returnCount] = licenseAddress;\n                returnTrustingIssuers[returnCount] = licenses[licenseAddress]\n                    .trustingIssuer;\n                returnTrustingProviders[returnCount] = licenses[licenseAddress]\n                    .trustingProvider;\n                returnCount++;\n            }\n        }\n        return (\n            returnLicenseAddresses,\n            returnTrustingIssuers,\n            returnTrustingProviders\n        );\n    }\n\n    function getIssuers() external view returns (address[] memory) {\n        uint256 issuerCount = 0;\n\n        for (uint256 i = 0; i < licenseIssuers.length; i++) {\n            address issuer = licenseIssuers[i];\n            if (isIssuer[issuer]) {\n                issuerCount++;\n            }\n        }\n\n        address[] memory returnArray = new address[](issuerCount);\n        uint256 returnCount = 0;\n\n        for (uint256 i = 0; i < licenseIssuers.length; i++) {\n            address issuer = licenseIssuers[i];\n            if (isIssuer[issuer]) {\n                returnArray[returnCount] = issuer;\n                returnCount++;\n            }\n        }\n\n        return returnArray;\n    }\n\n    function getLicenseProviders() external view returns (address[] memory) {\n        uint256 providerCount = 0;\n\n        for (uint256 i = 0; i < licenseProvider.length; i++) {\n            address provider = licenseProvider[i];\n            if (isProvider[provider]) {\n                providerCount++;\n            }\n        }\n\n        address[] memory returnArray = new address[](providerCount);\n        uint256 returnCount = 0;\n\n        for (uint256 i = 0; i < licenseProvider.length; i++) {\n            address provider = licenseProvider[i];\n            if (isProvider[provider]) {\n                returnArray[returnCount] = provider;\n                returnCount++;\n            }\n        }\n\n        return returnArray;\n\n    }\n\n    function getAuthorityTrustingLicenseIssuer(address _license)\n        external\n        view\n        returns (address)\n    {\n        return issuerTrustedByAuthority[_license];\n    }\n\n    function getAuthorityTrustingLicenseProvider(address _provider)\n        external\n        view\n        returns (address)\n    {\n        return providerTrustedByAuthority[_provider];\n    }\n\n}\n",
  "sourcePath": "contracts/LicenseProvider.sol",
  "compiler": {
    "name": "solc",
    "version": "0.6.1+commit.e6f7d5a4.Emscripten.clang"
  },
  "schemaVersion": "3.0.23",
  "updatedAt": "2020-04-10T09:40:22.826Z",
  "networkType": "ethereum",
  "devdoc": {
    "methods": {}
  },
  "userdoc": {
    "methods": {}
  }
}