{
  "contractName": "Measure",
  "abi": [
    {
      "inputs": [
        {
          "internalType": "address",
          "name": "_treatmentContractAddress",
          "type": "address"
        }
      ],
      "stateMutability": "nonpayable",
      "type": "constructor"
    },
    {
      "inputs": [
        {
          "internalType": "uint8",
          "name": "_rating",
          "type": "uint8"
        },
        {
          "internalType": "bytes32",
          "name": "_fullMeasureHash",
          "type": "bytes32"
        },
        {
          "internalType": "string",
          "name": "_fullMeasureURL",
          "type": "string"
        }
      ],
      "name": "createMeasure",
      "outputs": [],
      "stateMutability": "nonpayable",
      "type": "function"
    },
    {
      "inputs": [
        {
          "internalType": "address",
          "name": "_treatment",
          "type": "address"
        }
      ],
      "name": "getMeasureForTreatment",
      "outputs": [
        {
          "internalType": "uint8",
          "name": "",
          "type": "uint8"
        },
        {
          "internalType": "bytes32",
          "name": "",
          "type": "bytes32"
        },
        {
          "internalType": "string",
          "name": "",
          "type": "string"
        }
      ],
      "stateMutability": "view",
      "type": "function",
      "constant": true
    }
  ],
  "bytecode": "0x608060405234801561001057600080fd5b506040516108d73803806108d78339818101604052602081101561003357600080fd5b8101908080519060200190929190505050806000806101000a81548173ffffffffffffffffffffffffffffffffffffffff021916908373ffffffffffffffffffffffffffffffffffffffff16021790555050610843806100946000396000f3fe608060405234801561001057600080fd5b50600436106100365760003560e01c8063300411891461003b5780639424a52f146100cb575b600080fd5b6100c96004803603606081101561005157600080fd5b81019080803560ff169060200190929190803590602001909291908035906020019064010000000081111561008557600080fd5b82018360208201111561009757600080fd5b803590602001918460018302840111640100000000831117156100b957600080fd5b909192939192939050505061019c565b005b61010d600480360360208110156100e157600080fd5b81019080803573ffffffffffffffffffffffffffffffffffffffff1690602001909291905050506105e5565b604051808460ff1660ff16815260200183815260200180602001828103825283818151815260200191508051906020019080838360005b8381101561015f578082015181840152602081019050610144565b50505050905090810190601f16801561018c5780820380516001836020036101000a031916815260200191505b5094505050505060405180910390f35b6000809054906101000a900473ffffffffffffffffffffffffffffffffffffffff1673ffffffffffffffffffffffffffffffffffffffff166301aa06c8336040518263ffffffff1660e01b8152600401808273ffffffffffffffffffffffffffffffffffffffff1673ffffffffffffffffffffffffffffffffffffffff16815260200191505060206040518083038186803b15801561023a57600080fd5b505afa15801561024e573d6000803e3d6000fd5b505050506040513d602081101561026457600080fd5b8101908080519060200190929190505050156102e8576040517f08c379a000000000000000000000000000000000000000000000000000000000815260040180806020018281038252601f8152602001807f54726561746d656e7420697320616c6c7265616479206576616c75617465640081525060200191505060405180910390fd5b6000809054906101000a900473ffffffffffffffffffffffffffffffffffffffff1673ffffffffffffffffffffffffffffffffffffffff1663625aa653336040518263ffffffff1660e01b8152600401808273ffffffffffffffffffffffffffffffffffffffff1673ffffffffffffffffffffffffffffffffffffffff16815260200191505060206040518083038186803b15801561038657600080fd5b505afa15801561039a573d6000803e3d6000fd5b505050506040513d60208110156103b057600080fd5b8101908080519060200190929190505050610433576040517f08c379a000000000000000000000000000000000000000000000000000000000815260040180806020018281038252601a8152602001807f54726561746d656e74206973206e6f7420696e7374616e63656400000000000081525060200191505060405180910390fd5b83600160003373ffffffffffffffffffffffffffffffffffffffff1673ffffffffffffffffffffffffffffffffffffffff16815260200190815260200160002060000160006101000a81548160ff021916908360ff16021790555082600160003373ffffffffffffffffffffffffffffffffffffffff1673ffffffffffffffffffffffffffffffffffffffff168152602001908152602001600020600101819055508181600160003373ffffffffffffffffffffffffffffffffffffffff1673ffffffffffffffffffffffffffffffffffffffff1681526020019081526020016000206002019190610526929190610768565b506000809054906101000a900473ffffffffffffffffffffffffffffffffffffffff1673ffffffffffffffffffffffffffffffffffffffff16639f97dacb336040518263ffffffff1660e01b8152600401808273ffffffffffffffffffffffffffffffffffffffff1673ffffffffffffffffffffffffffffffffffffffff168152602001915050600060405180830381600087803b1580156105c757600080fd5b505af11580156105db573d6000803e3d6000fd5b5050505050505050565b6000806060600160008573ffffffffffffffffffffffffffffffffffffffff1673ffffffffffffffffffffffffffffffffffffffff16815260200190815260200160002060000160009054906101000a900460ff16600160008673ffffffffffffffffffffffffffffffffffffffff1673ffffffffffffffffffffffffffffffffffffffff16815260200190815260200160002060010154600160008773ffffffffffffffffffffffffffffffffffffffff1673ffffffffffffffffffffffffffffffffffffffff168152602001908152602001600020600201808054600181600116156101000203166002900480601f0160208091040260200160405190810160405280929190818152602001828054600181600116156101000203166002900480156107545780601f1061072957610100808354040283529160200191610754565b820191906000526020600020905b81548152906001019060200180831161073757829003601f168201915b505050505090509250925092509193909250565b828054600181600116156101000203166002900490600052602060002090601f016020900481019282601f106107a957803560ff19168380011785556107d7565b828001600101855582156107d7579182015b828111156107d65782358255916020019190600101906107bb565b5b5090506107e491906107e8565b5090565b61080a91905b808211156108065760008160009055506001016107ee565b5090565b9056fea2646970667358221220de7af1ed3aeb596bf3e03673329770eaefb0fff8e0381e27aea8902bd14ae6ef64736f6c63430006010033",
  "source": "pragma solidity ^0.6.1;\nimport \"./iface/ITreatment.sol\";\nimport \"./iface/IMeasure.sol\";\n\ncontract Measure is IMeasure {\n    ITreatment treatmentContract;\n\n    mapping(address => MeasureInstance) measures;\n\n    constructor(address _treatmentContractAddress) public {\n        treatmentContract = ITreatment(_treatmentContractAddress);\n    }\n\n    function createMeasure(\n        uint8 _rating,\n        bytes32 _fullMeasureHash,\n        string calldata _fullMeasureURL\n    ) external override {\n        require(\n            !treatmentContract.isTreatmentSpent(msg.sender),\n            \"Treatment is allready evaluated\"\n        );\n        require(\n            treatmentContract.isTreatmentInstanced(msg.sender),\n            \"Treatment is not instanced\"\n        );\n        measures[msg.sender].rating = _rating;\n        measures[msg.sender].fullMeasureHash = _fullMeasureHash;\n        measures[msg.sender].fullMeasureURL = _fullMeasureURL;\n        treatmentContract.spendTreatment(msg.sender);\n    }\n\n    function getMeasureForTreatment(address _treatment)\n        external\n        view\n        override\n        returns (uint8, bytes32, string memory)\n    {\n        return (\n            measures[_treatment].rating,\n            measures[_treatment].fullMeasureHash,\n            measures[_treatment].fullMeasureURL\n        );\n    }\n\n}\n",
  "sourcePath": "contracts/Measure.sol",
  "compiler": {
    "name": "solc",
    "version": "0.6.1+commit.e6f7d5a4.Emscripten.clang"
  },
  "schemaVersion": "3.0.23",
  "updatedAt": "2021-03-08T18:05:29.860Z",
  "networkType": "ethereum",
  "devdoc": {
    "methods": {}
  },
  "userdoc": {
    "methods": {}
  }
}