{
  "contractName": "Treatment",
  "abi": [
    {
      "inputs": [
        {
          "internalType": "address",
          "name": "_licenseProviderAddress",
          "type": "address"
        },
        {
          "internalType": "address",
          "name": "_treatmentProviderAddress",
          "type": "address"
        }
      ],
      "stateMutability": "nonpayable",
      "type": "constructor"
    },
    {
      "inputs": [
        {
          "internalType": "address",
          "name": "_measureContract",
          "type": "address"
        }
      ],
      "name": "registerMeasureContract",
      "outputs": [],
      "stateMutability": "nonpayable",
      "type": "function"
    },
    {
      "inputs": [
        {
          "internalType": "address",
          "name": "_treatmentAddress",
          "type": "address"
        },
        {
          "internalType": "bytes32",
          "name": "_datahash",
          "type": "bytes32"
        },
        {
          "internalType": "string",
          "name": "_dataLocationURL",
          "type": "string"
        }
      ],
      "name": "createTreatment",
      "outputs": [],
      "stateMutability": "nonpayable",
      "type": "function"
    },
    {
      "inputs": [
        {
          "internalType": "address",
          "name": "_treatmentAddress",
          "type": "address"
        }
      ],
      "name": "approveTreatment",
      "outputs": [],
      "stateMutability": "nonpayable",
      "type": "function"
    },
    {
      "inputs": [
        {
          "internalType": "address",
          "name": "_treatmentAddress",
          "type": "address"
        }
      ],
      "name": "spendTreatment",
      "outputs": [],
      "stateMutability": "nonpayable",
      "type": "function"
    },
    {
      "inputs": [],
      "name": "getTreatmentAddresses",
      "outputs": [
        {
          "internalType": "address[]",
          "name": "",
          "type": "address[]"
        }
      ],
      "stateMutability": "view",
      "type": "function",
      "constant": true
    },
    {
      "inputs": [],
      "name": "getTreatmentsWithData",
      "outputs": [
        {
          "internalType": "address[]",
          "name": "",
          "type": "address[]"
        },
        {
          "internalType": "address[]",
          "name": "",
          "type": "address[]"
        },
        {
          "internalType": "address[]",
          "name": "",
          "type": "address[]"
        },
        {
          "internalType": "bytes32[]",
          "name": "",
          "type": "bytes32[]"
        },
        {
          "internalType": "bool[]",
          "name": "",
          "type": "bool[]"
        }
      ],
      "stateMutability": "view",
      "type": "function",
      "constant": true
    },
    {
      "inputs": [
        {
          "internalType": "address",
          "name": "_licenseAddress",
          "type": "address"
        }
      ],
      "name": "getTreatmentsForLicense",
      "outputs": [
        {
          "internalType": "address[]",
          "name": "",
          "type": "address[]"
        }
      ],
      "stateMutability": "view",
      "type": "function",
      "constant": true
    },
    {
      "inputs": [
        {
          "internalType": "address",
          "name": "_treatmentAddress",
          "type": "address"
        }
      ],
      "name": "getTreatmentData",
      "outputs": [
        {
          "internalType": "address",
          "name": "",
          "type": "address"
        },
        {
          "internalType": "address",
          "name": "",
          "type": "address"
        },
        {
          "internalType": "bytes32",
          "name": "",
          "type": "bytes32"
        },
        {
          "internalType": "string",
          "name": "",
          "type": "string"
        },
        {
          "internalType": "bool",
          "name": "",
          "type": "bool"
        }
      ],
      "stateMutability": "view",
      "type": "function",
      "constant": true
    },
    {
      "inputs": [
        {
          "internalType": "address",
          "name": "_treatmentAddress",
          "type": "address"
        }
      ],
      "name": "isTreatmentSpent",
      "outputs": [
        {
          "internalType": "bool",
          "name": "",
          "type": "bool"
        }
      ],
      "stateMutability": "view",
      "type": "function",
      "constant": true
    },
    {
      "inputs": [
        {
          "internalType": "address",
          "name": "_treatmentAddress",
          "type": "address"
        }
      ],
      "name": "isTreatmentInstanced",
      "outputs": [
        {
          "internalType": "bool",
          "name": "",
          "type": "bool"
        }
      ],
      "stateMutability": "view",
      "type": "function",
      "constant": true
    }
  ],
  "bytecode": "0x608060405234801561001057600080fd5b50604051611cd7380380611cd78339818101604052604081101561003357600080fd5b810190808051906020019092919080519060200190929190505050816000806101000a81548173ffffffffffffffffffffffffffffffffffffffff021916908373ffffffffffffffffffffffffffffffffffffffff16021790555080600160006101000a81548173ffffffffffffffffffffffffffffffffffffffff021916908373ffffffffffffffffffffffffffffffffffffffff16021790555033600360006101000a81548173ffffffffffffffffffffffffffffffffffffffff021916908373ffffffffffffffffffffffffffffffffffffffff1602179055505050611bb6806101216000396000f3fe608060405234801561001057600080fd5b506004361061009e5760003560e01c806386be6f161161006657806386be6f16146104b25780639f97dacb146104f6578063c17ce5031461053a578063caed45b214610599578063e9a1ff2c146105dd5761009e565b806301aa06c8146100a3578063414d47f1146100ff57806344ceb0911461023457806352e051f4146103b3578063625aa65314610456575b600080fd5b6100e5600480360360208110156100b957600080fd5b81019080803573ffffffffffffffffffffffffffffffffffffffff169060200190929190505050610676565b604051808215151515815260200191505060405180910390f35b6101416004803603602081101561011557600080fd5b81019080803573ffffffffffffffffffffffffffffffffffffffff1690602001909291905050506106cf565b604051808673ffffffffffffffffffffffffffffffffffffffff1673ffffffffffffffffffffffffffffffffffffffff1681526020018573ffffffffffffffffffffffffffffffffffffffff1673ffffffffffffffffffffffffffffffffffffffff1681526020018481526020018060200183151515158152602001828103825284818151815260200191508051906020019080838360005b838110156101f55780820151818401526020810190506101da565b50505050905090810190601f1680156102225780820380516001836020036101000a031916815260200191505b50965050505050505060405180910390f35b61023c610922565b60405180806020018060200180602001806020018060200186810386528b818151815260200191508051906020019060200280838360005b8381101561028f578082015181840152602081019050610274565b5050505090500186810385528a818151815260200191508051906020019060200280838360005b838110156102d15780820151818401526020810190506102b6565b50505050905001868103845289818151815260200191508051906020019060200280838360005b838110156103135780820151818401526020810190506102f8565b50505050905001868103835288818151815260200191508051906020019060200280838360005b8381101561035557808201518184015260208101905061033a565b50505050905001868103825287818151815260200191508051906020019060200280838360005b8381101561039757808201518184015260208101905061037c565b505050509050019a505050505050505050505060405180910390f35b610454600480360360608110156103c957600080fd5b81019080803573ffffffffffffffffffffffffffffffffffffffff169060200190929190803590602001909291908035906020019064010000000081111561041057600080fd5b82018360208201111561042257600080fd5b8035906020019184600183028401116401000000008311171561044457600080fd5b9091929391929390505050610d1c565b005b6104986004803603602081101561046c57600080fd5b81019080803573ffffffffffffffffffffffffffffffffffffffff1690602001909291905050506110d1565b604051808215151515815260200191505060405180910390f35b6104f4600480360360208110156104c857600080fd5b81019080803573ffffffffffffffffffffffffffffffffffffffff16906020019092919050505061112a565b005b6105386004803603602081101561050c57600080fd5b81019080803573ffffffffffffffffffffffffffffffffffffffff169060200190929190505050611544565b005b61054261172a565b6040518080602001828103825283818151815260200191508051906020019060200280838360005b8381101561058557808201518184015260208101905061056a565b505050509050019250505060405180910390f35b6105db600480360360208110156105af57600080fd5b81019080803573ffffffffffffffffffffffffffffffffffffffff1690602001909291905050506117b8565b005b61061f600480360360208110156105f357600080fd5b81019080803573ffffffffffffffffffffffffffffffffffffffff169060200190929190505050611966565b6040518080602001828103825283818151815260200191508051906020019060200280838360005b83811015610662578082015181840152602081019050610647565b505050509050019250505060405180910390f35b6000600560008373ffffffffffffffffffffffffffffffffffffffff1673ffffffffffffffffffffffffffffffffffffffff16815260200190815260200160002060040160009054906101000a900460ff169050919050565b600080600060606000600560008773ffffffffffffffffffffffffffffffffffffffff1673ffffffffffffffffffffffffffffffffffffffff16815260200190815260200160002060000160009054906101000a900473ffffffffffffffffffffffffffffffffffffffff16600560008873ffffffffffffffffffffffffffffffffffffffff1673ffffffffffffffffffffffffffffffffffffffff16815260200190815260200160002060010160009054906101000a900473ffffffffffffffffffffffffffffffffffffffff16600560008973ffffffffffffffffffffffffffffffffffffffff1673ffffffffffffffffffffffffffffffffffffffff16815260200190815260200160002060020154600560008a73ffffffffffffffffffffffffffffffffffffffff1673ffffffffffffffffffffffffffffffffffffffff168152602001908152602001600020600301600560008b73ffffffffffffffffffffffffffffffffffffffff1673ffffffffffffffffffffffffffffffffffffffff16815260200190815260200160002060040160009054906101000a900460ff16818054600181600116156101000203166002900480601f0160208091040260200160405190810160405280929190818152602001828054600181600116156101000203166002900480156109085780601f106108dd57610100808354040283529160200191610908565b820191906000526020600020905b8154815290600101906020018083116108eb57829003601f168201915b505050505091509450945094509450945091939590929450565b6060806060806060600060048054905090506060816040519080825280602002602001820160405280156109655781602001602082028038833980820191505090505b5090506060826040519080825280602002602001820160405280156109995781602001602082028038833980820191505090505b5090506060836040519080825280602002602001820160405280156109cd5781602001602082028038833980820191505090505b509050606084604051908082528060200260200182016040528015610a015781602001602082028038833980820191505090505b50905060008090505b85811015610c7757600060048281548110610a2157fe5b9060005260206000200160009054906101000a900473ffffffffffffffffffffffffffffffffffffffff169050600560008273ffffffffffffffffffffffffffffffffffffffff1673ffffffffffffffffffffffffffffffffffffffff16815260200190815260200160002060000160009054906101000a900473ffffffffffffffffffffffffffffffffffffffff16868381518110610abd57fe5b602002602001019073ffffffffffffffffffffffffffffffffffffffff16908173ffffffffffffffffffffffffffffffffffffffff1681525050600560008273ffffffffffffffffffffffffffffffffffffffff1673ffffffffffffffffffffffffffffffffffffffff16815260200190815260200160002060010160009054906101000a900473ffffffffffffffffffffffffffffffffffffffff16858381518110610b6657fe5b602002602001019073ffffffffffffffffffffffffffffffffffffffff16908173ffffffffffffffffffffffffffffffffffffffff1681525050600560008273ffffffffffffffffffffffffffffffffffffffff1673ffffffffffffffffffffffffffffffffffffffff16815260200190815260200160002060020154848381518110610bef57fe5b602002602001018181525050600560008273ffffffffffffffffffffffffffffffffffffffff1673ffffffffffffffffffffffffffffffffffffffff16815260200190815260200160002060040160009054906101000a900460ff16838381518110610c5757fe5b602002602001019015159081151581525050508080600101915050610a0a565b5060048484848484805480602002602001604051908101604052809291908181526020018280548015610cff57602002820191906000526020600020905b8160009054906101000a900473ffffffffffffffffffffffffffffffffffffffff1673ffffffffffffffffffffffffffffffffffffffff1681526020019060010190808311610cb5575b505050505094509950995099509950995050505050509091929394565b33600160009054906101000a900473ffffffffffffffffffffffffffffffffffffffff1673ffffffffffffffffffffffffffffffffffffffff1663c08974e2826040518263ffffffff1660e01b8152600401808273ffffffffffffffffffffffffffffffffffffffff1673ffffffffffffffffffffffffffffffffffffffff16815260200191505060206040518083038186803b158015610dbc57600080fd5b505afa158015610dd0573d6000803e3d6000fd5b505050506040513d6020811015610de657600080fd5b8101908080519060200190929190505050610e4c576040517f08c379a000000000000000000000000000000000000000000000000000000000815260040180806020018281038252602b815260200180611ad9602b913960400191505060405180910390fd5b600560008673ffffffffffffffffffffffffffffffffffffffff1673ffffffffffffffffffffffffffffffffffffffff16815260200190815260200160002060040160019054906101000a900460ff1615610ef2576040517f08c379a000000000000000000000000000000000000000000000000000000000815260040180806020018281038252602f815260200180611b52602f913960400191505060405180910390fd5b33600560008773ffffffffffffffffffffffffffffffffffffffff1673ffffffffffffffffffffffffffffffffffffffff16815260200190815260200160002060010160006101000a81548173ffffffffffffffffffffffffffffffffffffffff021916908373ffffffffffffffffffffffffffffffffffffffff16021790555083600560008773ffffffffffffffffffffffffffffffffffffffff1673ffffffffffffffffffffffffffffffffffffffff168152602001908152602001600020600201819055508282600560008873ffffffffffffffffffffffffffffffffffffffff1673ffffffffffffffffffffffffffffffffffffffff168152602001908152602001600020600301919061100b929190611a33565b506001600560008773ffffffffffffffffffffffffffffffffffffffff1673ffffffffffffffffffffffffffffffffffffffff16815260200190815260200160002060040160016101000a81548160ff0219169083151502179055506004859080600181540180825580915050600190039060005260206000200160009091909190916101000a81548173ffffffffffffffffffffffffffffffffffffffff021916908373ffffffffffffffffffffffffffffffffffffffff1602179055505050505050565b6000600560008373ffffffffffffffffffffffffffffffffffffffff1673ffffffffffffffffffffffffffffffffffffffff16815260200190815260200160002060040160019054906101000a900460ff169050919050565b336000809054906101000a900473ffffffffffffffffffffffffffffffffffffffff1673ffffffffffffffffffffffffffffffffffffffff166319836d82826040518263ffffffff1660e01b8152600401808273ffffffffffffffffffffffffffffffffffffffff1673ffffffffffffffffffffffffffffffffffffffff16815260200191505060206040518083038186803b1580156111c957600080fd5b505afa1580156111dd573d6000803e3d6000fd5b505050506040513d60208110156111f357600080fd5b8101908080519060200190929190505050611276576040517f08c379a00000000000000000000000000000000000000000000000000000000081526004018080602001828103825260208152602001807f41646472657373206973206e6f7420612074727573746564206c6963656e736581525060200191505060405180910390fd5b600560008373ffffffffffffffffffffffffffffffffffffffff1673ffffffffffffffffffffffffffffffffffffffff16815260200190815260200160002060040160019054906101000a900460ff1661131b576040517f08c379a000000000000000000000000000000000000000000000000000000000815260040180806020018281038252602a815260200180611b04602a913960400191505060405180910390fd5b600073ffffffffffffffffffffffffffffffffffffffff16600560008473ffffffffffffffffffffffffffffffffffffffff1673ffffffffffffffffffffffffffffffffffffffff16815260200190815260200160002060000160009054906101000a900473ffffffffffffffffffffffffffffffffffffffff1673ffffffffffffffffffffffffffffffffffffffff161461141f576040517f08c379a000000000000000000000000000000000000000000000000000000000815260040180806020018281038252601e8152602001807f54726561746d656e7420697320616c6c726561647920617070726f766564000081525060200191505060405180910390fd5b33600560008473ffffffffffffffffffffffffffffffffffffffff1673ffffffffffffffffffffffffffffffffffffffff16815260200190815260200160002060000160006101000a81548173ffffffffffffffffffffffffffffffffffffffff021916908373ffffffffffffffffffffffffffffffffffffffff160217905550600660003373ffffffffffffffffffffffffffffffffffffffff1673ffffffffffffffffffffffffffffffffffffffff168152602001908152602001600020829080600181540180825580915050600190039060005260206000200160009091909190916101000a81548173ffffffffffffffffffffffffffffffffffffffff021916908373ffffffffffffffffffffffffffffffffffffffff1602179055505050565b33600260009054906101000a900473ffffffffffffffffffffffffffffffffffffffff1673ffffffffffffffffffffffffffffffffffffffff168173ffffffffffffffffffffffffffffffffffffffff1614611608576040517f08c379a000000000000000000000000000000000000000000000000000000000815260040180806020018281038252601f8152602001807f41646472657373206973206e6f74206d65617375726520636f6e74726163740081525060200191505060405180910390fd5b600560008373ffffffffffffffffffffffffffffffffffffffff1673ffffffffffffffffffffffffffffffffffffffff16815260200190815260200160002060040160009054906101000a900460ff16156116cb576040517f08c379a000000000000000000000000000000000000000000000000000000000815260040180806020018281038252601b8152602001807f54726561746d656e7420697320616c6c7265616479207370656e74000000000081525060200191505060405180910390fd5b6001600560008473ffffffffffffffffffffffffffffffffffffffff1673ffffffffffffffffffffffffffffffffffffffff16815260200190815260200160002060040160006101000a81548160ff0219169083151502179055505050565b606060048054806020026020016040519081016040528092919081815260200182805480156117ae57602002820191906000526020600020905b8160009054906101000a900473ffffffffffffffffffffffffffffffffffffffff1673ffffffffffffffffffffffffffffffffffffffff1681526020019060010190808311611764575b5050505050905090565b3373ffffffffffffffffffffffffffffffffffffffff16600360009054906101000a900473ffffffffffffffffffffffffffffffffffffffff1673ffffffffffffffffffffffffffffffffffffffff161461185e576040517f08c379a0000000000000000000000000000000000000000000000000000000008152600401808060200182810382526024815260200180611b2e6024913960400191505060405180910390fd5b600073ffffffffffffffffffffffffffffffffffffffff16600260009054906101000a900473ffffffffffffffffffffffffffffffffffffffff1673ffffffffffffffffffffffffffffffffffffffff1614611922576040517f08c379a00000000000000000000000000000000000000000000000000000000081526004018080602001828103825260208152602001807f6d656173757265436f6e747261637420697320616c6c7265616479207365742e81525060200191505060405180910390fd5b80600260006101000a81548173ffffffffffffffffffffffffffffffffffffffff021916908373ffffffffffffffffffffffffffffffffffffffff16021790555050565b6060600660008373ffffffffffffffffffffffffffffffffffffffff1673ffffffffffffffffffffffffffffffffffffffff168152602001908152602001600020805480602002602001604051908101604052809291908181526020018280548015611a2757602002820191906000526020600020905b8160009054906101000a900473ffffffffffffffffffffffffffffffffffffffff1673ffffffffffffffffffffffffffffffffffffffff16815260200190600101908083116119dd575b50505050509050919050565b828054600181600116156101000203166002900490600052602060002090601f016020900481019282601f10611a7457803560ff1916838001178555611aa2565b82800160010185558215611aa2579182015b82811115611aa1578235825591602001919060010190611a86565b5b509050611aaf9190611ab3565b5090565b611ad591905b80821115611ad1576000816000905550600101611ab9565b5090565b9056fe41646472657373206973206e6f74206120747275737465642074726561746d656e742070726f766964657254726561746d656e74207769746820746869732061646472657373206973206e6f7420637265617465644f6e6c792073656e6465722063616e20736574206d65617375726520436f6e747261637454726561746d656e7420776974682074686973206164647265737320697320616c6c72656164792063726561746564a26469706673582212209ac1d5ddde9e1b4425a2885b4f3ba6647ffa3efccb0436f93e1a86f94c61b59f64736f6c63430006010033",
  "source": "pragma solidity ^0.6.1;\nimport \"./iface/ILicenseProviderManager.sol\";\nimport \"./iface/ITreatmentProviderManager.sol\";\nimport \"./iface/ITreatment.sol\";\nimport \"./iface/IMeasure.sol\";\n\ncontract Treatment is ITreatment {\n    ILicenseProviderManager licenseProvider;\n    ITreatmentProviderManager treatmentProvider;\n    IMeasure measureContract;\n    address creator;\n\n    address[] treatmentsLog;\n    mapping(address => TreatmentInstance) treatments;\n    mapping(address => address[]) treatmentsPerformedByLicense;\n\n    modifier addressIsTrustedLicenseHolder(address _address) {\n        require(\n            licenseProvider.isLicenseTrusted(_address),\n            \"Address is not a trusted license\"\n        );\n        _;\n    }\n\n    modifier addressIsTreatmentProvider(address _address) {\n        require(\n            treatmentProvider.isTrustedProvider(_address),\n            \"Address is not a trusted treatment provider\"\n        );\n        _;\n    }\n\n    modifier addressIsMeasureContract(address _address) {\n        require(\n            _address == address(measureContract),\n            \"Address is not measure contract\"\n        );\n        _;\n    }\n\n    constructor(\n        address _licenseProviderAddress,\n        address _treatmentProviderAddress\n    ) public {\n        licenseProvider = ILicenseProviderManager(_licenseProviderAddress);\n        treatmentProvider = ITreatmentProviderManager(\n            _treatmentProviderAddress\n        );\n        creator = msg.sender;\n    }\n\n    function registerMeasureContract(address _measureContract)\n        external\n        override\n    {\n        require(creator == msg.sender, \"Only sender can set measure Contract\");\n        require(\n            address(measureContract) == address(0x0),\n            \"measureContract is allready set.\"\n        );\n        measureContract = IMeasure(_measureContract);\n    }\n\n    function createTreatment(\n        address _treatmentAddress,\n        bytes32 _datahash,\n        string calldata _dataLocationURL\n    ) external override addressIsTreatmentProvider(msg.sender) {\n        require(\n            !treatments[_treatmentAddress].isInstanced,\n            \"Treatment with this address is allready created\"\n        );\n        treatments[_treatmentAddress].treatmentProvider = msg.sender;\n        treatments[_treatmentAddress].fullDataHash = _datahash;\n        treatments[_treatmentAddress].fullDataURL = _dataLocationURL;\n        treatments[_treatmentAddress].isInstanced = true;\n        treatmentsLog.push(_treatmentAddress);\n    }\n\n    function approveTreatment(address _treatmentAddress)\n        external\n        override\n        addressIsTrustedLicenseHolder(msg.sender)\n    {\n        require(\n            treatments[_treatmentAddress].isInstanced,\n            \"Treatment with this address is not created\"\n        );\n        require(\n            treatments[_treatmentAddress].approvingLicense == address(0x0),\n            \"Treatment is allready approved\"\n        );\n        treatments[_treatmentAddress].approvingLicense = msg.sender;\n        treatmentsPerformedByLicense[msg.sender].push(_treatmentAddress);\n    }\n\n    function spendTreatment(address _treatmentAddress)\n        external\n        override\n        addressIsMeasureContract(msg.sender)\n    {\n        require(\n            !treatments[_treatmentAddress].isSpent,\n            \"Treatment is allready spent\"\n        );\n        treatments[_treatmentAddress].isSpent = true;\n    }\n\n    function getTreatmentAddresses() external view returns (address[] memory) {\n        return treatmentsLog;\n    }\n\n    // We do not return a struct as Web3j does not support this as of writing.\n    function getTreatmentsWithData()\n        external\n        view\n        returns (\n            address[] memory,\n            address[] memory,\n            address[] memory,\n            bytes32[] memory,\n            bool[] memory\n        )\n    {\n        uint256 numTreatments = treatmentsLog.length;\n\n        address[] memory returnApprovingLicenses = new address[](numTreatments);\n        address[] memory returnTreatmentProvider = new address[](numTreatments);\n        bytes32[] memory returnFullDataHash = new bytes32[](numTreatments);\n        bool[] memory returnIsSpent = new bool[](numTreatments);\n\n        for (uint256 i = 0; i < numTreatments; i++) {\n            address treatmentAddress = treatmentsLog[i];\n            returnApprovingLicenses[i] = treatments[treatmentAddress]\n                .approvingLicense;\n            returnTreatmentProvider[i] = treatments[treatmentAddress]\n                .treatmentProvider;\n            returnFullDataHash[i] = treatments[treatmentAddress].fullDataHash;\n            returnIsSpent[i] = treatments[treatmentAddress].isSpent;\n        }\n\n        return (\n            treatmentsLog,\n            returnApprovingLicenses,\n            returnTreatmentProvider,\n            returnFullDataHash,\n            returnIsSpent\n        );\n    }\n\n    function getTreatmentsForLicense(address _licenseAddress)\n        external\n        view\n        override\n        returns (address[] memory)\n    {\n        return treatmentsPerformedByLicense[_licenseAddress];\n    }\n\n    function getTreatmentData(address _treatmentAddress)\n        external\n        view\n        override\n        returns (address, address, bytes32, string memory, bool)\n    {\n        return (\n            treatments[_treatmentAddress].approvingLicense,\n            treatments[_treatmentAddress].treatmentProvider,\n            treatments[_treatmentAddress].fullDataHash,\n            treatments[_treatmentAddress].fullDataURL,\n            treatments[_treatmentAddress].isSpent\n        );\n    }\n\n    function isTreatmentSpent(address _treatmentAddress)\n        external\n        view\n        override\n        returns (bool)\n    {\n        return treatments[_treatmentAddress].isSpent;\n    }\n\n    function isTreatmentInstanced(address _treatmentAddress)\n        external\n        view\n        override\n        returns (bool)\n    {\n        return treatments[_treatmentAddress].isInstanced;\n    }\n}\n",
  "sourcePath": "contracts/Treatment.sol",
  "compiler": {
    "name": "solc",
    "version": "0.6.1+commit.e6f7d5a4.Emscripten.clang"
  },
  "schemaVersion": "3.0.23",
  "updatedAt": "2021-03-08T18:05:29.844Z",
  "networkType": "ethereum",
  "devdoc": {
    "methods": {}
  },
  "userdoc": {
    "methods": {}
  }
}