{
  "contractName": "TreatmentProvider",
  "abi": [
    {
      "inputs": [
        {
          "internalType": "address",
          "name": "_address",
          "type": "address"
        }
      ],
      "stateMutability": "nonpayable",
      "type": "constructor"
    },
    {
      "anonymous": false,
      "inputs": [
        {
          "indexed": false,
          "internalType": "address",
          "name": "_provider",
          "type": "address"
        }
      ],
      "name": "NewTreatmentProviderEvent",
      "type": "event"
    },
    {
      "anonymous": false,
      "inputs": [
        {
          "indexed": false,
          "internalType": "address",
          "name": "_provider",
          "type": "address"
        }
      ],
      "name": "RemovedTreatmentProviderEvent",
      "type": "event"
    },
    {
      "anonymous": false,
      "inputs": [
        {
          "indexed": false,
          "internalType": "address",
          "name": "_provider",
          "type": "address"
        },
        {
          "indexed": false,
          "internalType": "address",
          "name": "_authority",
          "type": "address"
        }
      ],
      "name": "TreatmentProviderTrustAdded",
      "type": "event"
    },
    {
      "anonymous": false,
      "inputs": [
        {
          "indexed": false,
          "internalType": "address",
          "name": "_provider",
          "type": "address"
        },
        {
          "indexed": false,
          "internalType": "address",
          "name": "_authority",
          "type": "address"
        }
      ],
      "name": "TreatmentProviderTrustRemoved",
      "type": "event"
    },
    {
      "inputs": [
        {
          "internalType": "address",
          "name": "_address",
          "type": "address"
        }
      ],
      "name": "isProvider",
      "outputs": [
        {
          "internalType": "bool",
          "name": "",
          "type": "bool"
        }
      ],
      "stateMutability": "view",
      "type": "function",
      "constant": true
    },
    {
      "inputs": [
        {
          "internalType": "address",
          "name": "_address",
          "type": "address"
        }
      ],
      "name": "isTrustedProvider",
      "outputs": [
        {
          "internalType": "bool",
          "name": "",
          "type": "bool"
        }
      ],
      "stateMutability": "view",
      "type": "function",
      "constant": true
    },
    {
      "inputs": [
        {
          "internalType": "address",
          "name": "_provider",
          "type": "address"
        }
      ],
      "name": "getProviderTrustees",
      "outputs": [
        {
          "internalType": "address[]",
          "name": "",
          "type": "address[]"
        }
      ],
      "stateMutability": "view",
      "type": "function",
      "constant": true
    },
    {
      "inputs": [],
      "name": "getRegisteredProviders",
      "outputs": [
        {
          "internalType": "address[]",
          "name": "",
          "type": "address[]"
        }
      ],
      "stateMutability": "view",
      "type": "function",
      "constant": true
    },
    {
      "inputs": [],
      "name": "addSenderAsProvider",
      "outputs": [],
      "stateMutability": "nonpayable",
      "type": "function"
    },
    {
      "inputs": [],
      "name": "removeSenderAsProvider",
      "outputs": [],
      "stateMutability": "nonpayable",
      "type": "function"
    },
    {
      "inputs": [
        {
          "internalType": "address",
          "name": "_address",
          "type": "address"
        }
      ],
      "name": "addTrustInProvider",
      "outputs": [],
      "stateMutability": "nonpayable",
      "type": "function"
    },
    {
      "inputs": [
        {
          "internalType": "address",
          "name": "_address",
          "type": "address"
        }
      ],
      "name": "removeTrustInProvider",
      "outputs": [],
      "stateMutability": "nonpayable",
      "type": "function"
    }
  ],
  "bytecode": "0x608060405234801561001057600080fd5b50604051611a8a380380611a8a8339818101604052602081101561003357600080fd5b8101908080519060200190929190505050806000806101000a81548173ffffffffffffffffffffffffffffffffffffffff021916908373ffffffffffffffffffffffffffffffffffffffff160217905550506119f6806100946000396000f3fe608060405234801561001057600080fd5b50600436106100885760003560e01c80636b074a071161005b5780636b074a07146101d3578063773165771461022f57806380b4cb8b14610239578063c08974e21461027d57610088565b80632990cfd51461008d578063427e1d1a146100ec5780635f4b6a43146101855780636738b0d5146101c9575b600080fd5b6100956102d9565b6040518080602001828103825283818151815260200191508051906020019060200280838360005b838110156100d85780820151818401526020810190506100bd565b505050509050019250505060405180910390f35b61012e6004803603602081101561010257600080fd5b81019080803573ffffffffffffffffffffffffffffffffffffffff1690602001909291905050506104f3565b6040518080602001828103825283818151815260200191508051906020019060200280838360005b83811015610171578082015181840152602081019050610156565b505050509050019250505060405180910390f35b6101c76004803603602081101561019b57600080fd5b81019080803573ffffffffffffffffffffffffffffffffffffffff1690602001909291905050506105c0565b005b6101d1610bef565b005b610215600480360360208110156101e957600080fd5b81019080803573ffffffffffffffffffffffffffffffffffffffff169060200190929190505050610db7565b604051808215151515815260200191505060405180910390f35b610237610e02565b005b61027b6004803603602081101561024f57600080fd5b81019080803573ffffffffffffffffffffffffffffffffffffffff169060200190929190505050611190565b005b6102bf6004803603602081101561029357600080fd5b81019080803573ffffffffffffffffffffffffffffffffffffffff16906020019092919050505061170c565b604051808215151515815260200191505060405180910390f35b6060600080600090505b6002805490508110156103875760018101600360006002848154811061030557fe5b9060005260206000200160009054906101000a900473ffffffffffffffffffffffffffffffffffffffff1673ffffffffffffffffffffffffffffffffffffffff1673ffffffffffffffffffffffffffffffffffffffff16815260200190815260200160002054141561037a5781806001019250505b80806001019150506102e3565b506060816040519080825280602002602001820160405280156103b95781602001602082028038833980820191505090505b509050600080905060008090505b6002805490508110156104e9576001810160036000600284815481106103e957fe5b9060005260206000200160009054906101000a900473ffffffffffffffffffffffffffffffffffffffff1673ffffffffffffffffffffffffffffffffffffffff1673ffffffffffffffffffffffffffffffffffffffff1681526020019081526020016000205414156104dc576002818154811061046257fe5b9060005260206000200160009054906101000a900473ffffffffffffffffffffffffffffffffffffffff1683838151811061049957fe5b602002602001019073ffffffffffffffffffffffffffffffffffffffff16908173ffffffffffffffffffffffffffffffffffffffff168152505081806001019250505b80806001019150506103c7565b5081935050505090565b6060600460008373ffffffffffffffffffffffffffffffffffffffff1673ffffffffffffffffffffffffffffffffffffffff1681526020019081526020016000208054806020026020016040519081016040528092919081815260200182805480156105b457602002820191906000526020600020905b8160009054906101000a900473ffffffffffffffffffffffffffffffffffffffff1673ffffffffffffffffffffffffffffffffffffffff168152602001906001019080831161056a575b50505050509050919050565b806000600360008373ffffffffffffffffffffffffffffffffffffffff1673ffffffffffffffffffffffffffffffffffffffff1681526020019081526020016000205411610676576040517f08c379a00000000000000000000000000000000000000000000000000000000081526004018080602001828103825260188152602001807f546172676574206973206e6f7420612070726f7669646572000000000000000081525060200191505060405180910390fd5b81600660008273ffffffffffffffffffffffffffffffffffffffff1673ffffffffffffffffffffffffffffffffffffffff16815260200190815260200160002060003373ffffffffffffffffffffffffffffffffffffffff1673ffffffffffffffffffffffffffffffffffffffff16815260200190815260200160002060009054906101000a900460ff16610756576040517f08c379a00000000000000000000000000000000000000000000000000000000081526004018080602001828103825260278152602001806119706027913960400191505060405180910390fd5b6000600560008573ffffffffffffffffffffffffffffffffffffffff1673ffffffffffffffffffffffffffffffffffffffff16815260200190815260200160002060003373ffffffffffffffffffffffffffffffffffffffff1673ffffffffffffffffffffffffffffffffffffffff1681526020019081526020016000205490506000600460008673ffffffffffffffffffffffffffffffffffffffff1673ffffffffffffffffffffffffffffffffffffffff1681526020019081526020016000208054905090506001811180156108315750600181038214155b156109c8576000600460008773ffffffffffffffffffffffffffffffffffffffff1673ffffffffffffffffffffffffffffffffffffffff168152602001908152602001600020600183038154811061088557fe5b9060005260206000200160009054906101000a900473ffffffffffffffffffffffffffffffffffffffff16905080600460008873ffffffffffffffffffffffffffffffffffffffff1673ffffffffffffffffffffffffffffffffffffffff16815260200190815260200160002084815481106108fd57fe5b9060005260206000200160006101000a81548173ffffffffffffffffffffffffffffffffffffffff021916908373ffffffffffffffffffffffffffffffffffffffff16021790555082600560008873ffffffffffffffffffffffffffffffffffffffff1673ffffffffffffffffffffffffffffffffffffffff16815260200190815260200160002060008373ffffffffffffffffffffffffffffffffffffffff1673ffffffffffffffffffffffffffffffffffffffff16815260200190815260200160002081905550505b600460008673ffffffffffffffffffffffffffffffffffffffff1673ffffffffffffffffffffffffffffffffffffffff168152602001908152602001600020805480610a1057fe5b6001900381819060005260206000200160006101000a81549073ffffffffffffffffffffffffffffffffffffffff02191690559055600660008673ffffffffffffffffffffffffffffffffffffffff1673ffffffffffffffffffffffffffffffffffffffff16815260200190815260200160002060003373ffffffffffffffffffffffffffffffffffffffff1673ffffffffffffffffffffffffffffffffffffffff16815260200190815260200160002060006101000a81549060ff0219169055600560008673ffffffffffffffffffffffffffffffffffffffff1673ffffffffffffffffffffffffffffffffffffffff16815260200190815260200160002060003373ffffffffffffffffffffffffffffffffffffffff1673ffffffffffffffffffffffffffffffffffffffff168152602001908152602001600020600090557feb7c4035edec91cc956ffa5fbc1ef760578b7673795080a880894ca466ad09f28533604051808373ffffffffffffffffffffffffffffffffffffffff1673ffffffffffffffffffffffffffffffffffffffff1681526020018273ffffffffffffffffffffffffffffffffffffffff1673ffffffffffffffffffffffffffffffffffffffff1681526020019250505060405180910390a15050505050565b336000600360008373ffffffffffffffffffffffffffffffffffffffff1673ffffffffffffffffffffffffffffffffffffffff1681526020019081526020016000205414610ca5576040517f08c379a00000000000000000000000000000000000000000000000000000000081526004018080602001828103825260148152602001807f54617267657420697320612070726f766964657200000000000000000000000081525060200191505060405180910390fd5b6002339080600181540180825580915050600190039060005260206000200160009091909190916101000a81548173ffffffffffffffffffffffffffffffffffffffff021916908373ffffffffffffffffffffffffffffffffffffffff160217905550600280549050600360003373ffffffffffffffffffffffffffffffffffffffff1673ffffffffffffffffffffffffffffffffffffffff168152602001908152602001600020819055507f8a63f63eb3349eed4b607a65706b9507df86ee0782efded88206634aad562d1933604051808273ffffffffffffffffffffffffffffffffffffffff1673ffffffffffffffffffffffffffffffffffffffff16815260200191505060405180910390a150565b600080600360008473ffffffffffffffffffffffffffffffffffffffff1673ffffffffffffffffffffffffffffffffffffffff16815260200190815260200160002054119050919050565b336000600360008373ffffffffffffffffffffffffffffffffffffffff1673ffffffffffffffffffffffffffffffffffffffff1681526020019081526020016000205411610eb8576040517f08c379a00000000000000000000000000000000000000000000000000000000081526004018080602001828103825260188152602001807f546172676574206973206e6f7420612070726f7669646572000000000000000081525060200191505060405180910390fd5b600360003373ffffffffffffffffffffffffffffffffffffffff1673ffffffffffffffffffffffffffffffffffffffff1681526020019081526020016000206000905560008090505b600460003373ffffffffffffffffffffffffffffffffffffffff1673ffffffffffffffffffffffffffffffffffffffff168152602001908152602001600020805490508110156110de576000600460003373ffffffffffffffffffffffffffffffffffffffff1673ffffffffffffffffffffffffffffffffffffffff1681526020019081526020016000208281548110610f9757fe5b9060005260206000200160009054906101000a900473ffffffffffffffffffffffffffffffffffffffff169050600560003373ffffffffffffffffffffffffffffffffffffffff1673ffffffffffffffffffffffffffffffffffffffff16815260200190815260200160002060008273ffffffffffffffffffffffffffffffffffffffff1673ffffffffffffffffffffffffffffffffffffffff16815260200190815260200160002060009055600660003373ffffffffffffffffffffffffffffffffffffffff1673ffffffffffffffffffffffffffffffffffffffff16815260200190815260200160002060008273ffffffffffffffffffffffffffffffffffffffff1673ffffffffffffffffffffffffffffffffffffffff16815260200190815260200160002060006101000a81549060ff0219169055508080600101915050610f01565b50600460003373ffffffffffffffffffffffffffffffffffffffff1673ffffffffffffffffffffffffffffffffffffffff168152602001908152602001600020600061112a9190611929565b7f454fee85fec5ca79c3ef16adbf889139e7be1676c47b5bbe4df6027f7d860f9733604051808273ffffffffffffffffffffffffffffffffffffffff1673ffffffffffffffffffffffffffffffffffffffff16815260200191505060405180910390a150565b806000600360008373ffffffffffffffffffffffffffffffffffffffff1673ffffffffffffffffffffffffffffffffffffffff1681526020019081526020016000205411611246576040517f08c379a00000000000000000000000000000000000000000000000000000000081526004018080602001828103825260188152602001807f546172676574206973206e6f7420612070726f7669646572000000000000000081525060200191505060405180910390fd5b6000809054906101000a900473ffffffffffffffffffffffffffffffffffffffff1673ffffffffffffffffffffffffffffffffffffffff1663fe9fbb80336040518263ffffffff1660e01b8152600401808273ffffffffffffffffffffffffffffffffffffffff1673ffffffffffffffffffffffffffffffffffffffff16815260200191505060206040518083038186803b1580156112e457600080fd5b505afa1580156112f8573d6000803e3d6000fd5b505050506040513d602081101561130e57600080fd5b8101908080519060200190929190505050611391576040517f08c379a000000000000000000000000000000000000000000000000000000000815260040180806020018281038252601a8152602001807f53656e646572206973206e6f7420616e20417574686f7269747900000000000081525060200191505060405180910390fd5b81600660008273ffffffffffffffffffffffffffffffffffffffff1673ffffffffffffffffffffffffffffffffffffffff16815260200190815260200160002060003373ffffffffffffffffffffffffffffffffffffffff1673ffffffffffffffffffffffffffffffffffffffff16815260200190815260200160002060009054906101000a900460ff1615611472576040517f08c379a000000000000000000000000000000000000000000000000000000000815260040180806020018281038252602a815260200180611997602a913960400191505060405180910390fd5b6000600460008573ffffffffffffffffffffffffffffffffffffffff1673ffffffffffffffffffffffffffffffffffffffff168152602001908152602001600020805490509050600460008573ffffffffffffffffffffffffffffffffffffffff1673ffffffffffffffffffffffffffffffffffffffff168152602001908152602001600020339080600181540180825580915050600190039060005260206000200160009091909190916101000a81548173ffffffffffffffffffffffffffffffffffffffff021916908373ffffffffffffffffffffffffffffffffffffffff1602179055506001600660008673ffffffffffffffffffffffffffffffffffffffff1673ffffffffffffffffffffffffffffffffffffffff16815260200190815260200160002060003373ffffffffffffffffffffffffffffffffffffffff1673ffffffffffffffffffffffffffffffffffffffff16815260200190815260200160002060006101000a81548160ff02191690831515021790555080600560008673ffffffffffffffffffffffffffffffffffffffff1673ffffffffffffffffffffffffffffffffffffffff16815260200190815260200160002060003373ffffffffffffffffffffffffffffffffffffffff1673ffffffffffffffffffffffffffffffffffffffff168152602001908152602001600020819055507ff1f028a0fac9985a45f21dc24f3a6c3d2c689ae65e7778abaebcbf17365777d38433604051808373ffffffffffffffffffffffffffffffffffffffff1673ffffffffffffffffffffffffffffffffffffffff1681526020018273ffffffffffffffffffffffffffffffffffffffff1673ffffffffffffffffffffffffffffffffffffffff1681526020019250505060405180910390a150505050565b600080600360008473ffffffffffffffffffffffffffffffffffffffff1673ffffffffffffffffffffffffffffffffffffffff16815260200190815260200160002054141561175e5760009050611924565b6000600460008473ffffffffffffffffffffffffffffffffffffffff1673ffffffffffffffffffffffffffffffffffffffff16815260200190815260200160002080549050905060008090505b8181101561191d576000809054906101000a900473ffffffffffffffffffffffffffffffffffffffff1673ffffffffffffffffffffffffffffffffffffffff1663fe9fbb80600460008773ffffffffffffffffffffffffffffffffffffffff1673ffffffffffffffffffffffffffffffffffffffff168152602001908152602001600020838154811061183a57fe5b9060005260206000200160009054906101000a900473ffffffffffffffffffffffffffffffffffffffff166040518263ffffffff1660e01b8152600401808273ffffffffffffffffffffffffffffffffffffffff1673ffffffffffffffffffffffffffffffffffffffff16815260200191505060206040518083038186803b1580156118c557600080fd5b505afa1580156118d9573d6000803e3d6000fd5b505050506040513d60208110156118ef57600080fd5b81019080805190602001909291905050501561191057600192505050611924565b80806001019150506117ab565b5060009150505b919050565b5080546000825590600052602060002090810190611947919061194a565b50565b61196c91905b80821115611968576000816000905550600101611950565b5090565b9056fe50726f7669646572206973206e6f7420612074727573746564206279207468652073656e64657250726f766964657220697320616c6c72656164792074727573746564206279207468652073656e646572a2646970667358221220e52853e4ccb37cf60ee17c6849e7a35e786ef8bbaba915eb56264e7e9dd8b5aa64736f6c63430006010033",
  "source": "pragma solidity ^0.6.1;\nimport \"./iface/IAuthorization.sol\";\nimport \"./iface/ITreatmentProviderManager.sol\";\n\ncontract TreatmentProvider is ITreatmentProviderManager {\n    IAuthorization authorityContract;\n    string stringStore;\n\n    address[] providers;\n    mapping(address => uint256) providerIndex;\n    mapping(address => address[]) providerTrustees;\n    mapping(address => mapping(address => uint256)) providerTrusteesIndex;\n    mapping(address => mapping(address => bool)) isProviderTrustee;\n\n    modifier senderIsAuthority() {\n        require(\n            authorityContract.isAuthorized(msg.sender),\n            \"Sender is not an Authority\"\n        );\n        _;\n    }\n\n    modifier targetIsTrustedBySender(address _target) {\n        require(\n            isProviderTrustee[_target][msg.sender],\n            \"Provider is not a trusted by the sender\"\n        );\n        _;\n    }\n\n    modifier targetIsNotTrustedBySender(address _target) {\n        require(\n            !isProviderTrustee[_target][msg.sender],\n            \"Provider is allready trusted by the sender\"\n        );\n        _;\n    }\n\n    modifier targetIsProvider(address _target) {\n        require(providerIndex[_target] > 0, \"Target is not a provider\");\n        _;\n    }\n\n    modifier targetIsNotProvider(address _target) {\n        require(providerIndex[_target] == 0, \"Target is a provider\");\n        _;\n    }\n\n    event NewTreatmentProviderEvent(address _provider);\n    event RemovedTreatmentProviderEvent(address _provider);\n    event TreatmentProviderTrustAdded(address _provider, address _authority);\n    event TreatmentProviderTrustRemoved(address _provider, address _authority);\n\n    constructor(address _address) public {\n        authorityContract = IAuthorization(_address);\n    }\n\n    function isProvider(address _address) external view returns (bool) {\n        return providerIndex[_address] > 0;\n    }\n\n    function isTrustedProvider(address _address)\n        external\n        view\n        override\n        returns (bool)\n    {\n        if (providerIndex[_address] == 0) {\n            return false;\n        }\n\n        uint256 numTrustees = providerTrustees[_address].length;\n\n        for (uint256 i = 0; i < numTrustees; i++) {\n            if (authorityContract.isAuthorized(providerTrustees[_address][i])) {\n                return true;\n            }\n        }\n\n        return false;\n    }\n\n    function getProviderTrustees(address _provider)\n        external\n        view\n        returns (address[] memory)\n    {\n        return providerTrustees[_provider];\n    }\n\n    // Function only intended for external getting. The pattern is expenise, and is not optimized for on-chain usage.\n    function getRegisteredProviders() external view returns (address[] memory) {\n        uint256 returnSize;\n\n        for (uint256 i = 0; i < providers.length; i++) {\n            if (providerIndex[providers[i]] == (i + 1)) {\n                returnSize++;\n            }\n        }\n\n        address[] memory filteredProviders = new address[](returnSize);\n        uint256 returnArrayPointer = 0;\n\n        for (uint256 i = 0; i < providers.length; i++) {\n            if (providerIndex[providers[i]] == (i + 1)) {\n                filteredProviders[returnArrayPointer] = providers[i];\n                returnArrayPointer++;\n            }\n        }\n\n        return filteredProviders;\n    }\n\n    function addSenderAsProvider()\n        external\n        override\n        targetIsNotProvider(msg.sender)\n    {\n        providers.push(msg.sender);\n        providerIndex[msg.sender] = providers.length;\n        emit NewTreatmentProviderEvent(msg.sender);\n    }\n\n    function removeSenderAsProvider()\n        external\n        override\n        targetIsProvider(msg.sender)\n    {\n        delete providerIndex[msg.sender];\n        for (uint256 i = 0; i < providerTrustees[msg.sender].length; i++) {\n            address trustee = providerTrustees[msg.sender][i];\n            delete providerTrusteesIndex[msg.sender][trustee];\n            delete isProviderTrustee[msg.sender][trustee];\n        }\n        delete providerTrustees[msg.sender];\n        emit RemovedTreatmentProviderEvent(msg.sender);\n    }\n\n    function addTrustInProvider(address _address)\n        external\n        override\n        targetIsProvider(_address)\n        senderIsAuthority\n        targetIsNotTrustedBySender(_address)\n    {\n        uint256 trusteeNumber = providerTrustees[_address].length;\n        providerTrustees[_address].push(msg.sender);\n        isProviderTrustee[_address][msg.sender] = true;\n        providerTrusteesIndex[_address][msg.sender] = trusteeNumber;\n        emit TreatmentProviderTrustAdded(_address, msg.sender);\n    }\n\n    function removeTrustInProvider(address _address)\n        external\n        override\n        targetIsProvider(_address)\n        targetIsTrustedBySender(_address)\n    {\n        uint256 indexOfTrustee = providerTrusteesIndex[_address][msg.sender];\n        uint256 numTrustees = providerTrustees[_address].length;\n\n        // Swap the trustee to remove with the last one.\n        if ((numTrustees > 1) && (indexOfTrustee != numTrustees - 1)) {\n            address lastTrustee = providerTrustees[_address][numTrustees - 1];\n            providerTrustees[_address][indexOfTrustee] = lastTrustee;\n            providerTrusteesIndex[_address][lastTrustee] = indexOfTrustee;\n        }\n\n        providerTrustees[_address].pop();\n        delete isProviderTrustee[_address][msg.sender];\n        delete providerTrusteesIndex[_address][msg.sender];\n        emit TreatmentProviderTrustRemoved(_address, msg.sender);\n    }\n\n}\n",
  "sourcePath": "contracts/TreatmentProvider.sol",
  "compiler": {
    "name": "solc",
    "version": "0.6.1+commit.e6f7d5a4.Emscripten.clang"
  },
  "schemaVersion": "3.0.23",
  "updatedAt": "2021-03-08T18:05:28.681Z",
  "networkType": "ethereum",
  "devdoc": {
    "methods": {}
  },
  "userdoc": {
    "methods": {}
  }
}